{
	"contracts/CryptoZombies.sol": {
		"ZombieFactory": {
			"abi": [
				{
					"inputs": [
						{
							"internalType": "string",
							"name": "_str",
							"type": "string"
						}
					],
					"name": "_generateRandomDna",
					"outputs": [
						{
							"internalType": "uint256",
							"name": "",
							"type": "uint256"
						}
					],
					"stateMutability": "view",
					"type": "function"
				},
				{
					"inputs": [
						{
							"internalType": "uint256",
							"name": "",
							"type": "uint256"
						}
					],
					"name": "zombies",
					"outputs": [
						{
							"internalType": "string",
							"name": "name",
							"type": "string"
						},
						{
							"internalType": "uint256",
							"name": "dna",
							"type": "uint256"
						}
					],
					"stateMutability": "view",
					"type": "function"
				}
			],
			"devdoc": {
				"kind": "dev",
				"methods": {},
				"version": 1
			},
			"evm": {
				"assembly": "    /* \"contracts/CryptoZombies.sol\":70:746  contract ZombieFactory {\r... */\n  mstore(0x40, 0x80)\n    /* \"contracts/CryptoZombies.sol\":119:121  16 */\n  0x10\n    /* \"contracts/CryptoZombies.sol\":102:121  uint dnaDigits = 16 */\n  0x00\n  sstore\n    /* \"contracts/CryptoZombies.sol\":152:161  dnaDigits */\n  sload(0x00)\n    /* \"contracts/CryptoZombies.sol\":146:148  10 */\n  0x0a\n    /* \"contracts/CryptoZombies.sol\":146:161  10 ** dnaDigits */\n  tag_1\n  swap2\n  swap1\n  tag_2\n  jump\t// in\ntag_1:\n    /* \"contracts/CryptoZombies.sol\":128:161  uint dnaModulus = 10 ** dnaDigits */\n  0x01\n  sstore\n    /* \"contracts/CryptoZombies.sol\":70:746  contract ZombieFactory {\r... */\n  callvalue\n  dup1\n  iszero\n  tag_3\n  jumpi\n  0x00\n  dup1\n  revert\ntag_3:\n  pop\n  jump(tag_4)\n    /* \"#utility.yul\":7:855   */\ntag_6:\n    /* \"#utility.yul\":68:73   */\n  0x00\n    /* \"#utility.yul\":75:79   */\n  dup1\n    /* \"#utility.yul\":99:105   */\n  dup3\n    /* \"#utility.yul\":90:105   */\n  swap2\n  pop\n    /* \"#utility.yul\":123:128   */\n  dup4\n    /* \"#utility.yul\":114:128   */\n  swap1\n  pop\n    /* \"#utility.yul\":137:849   */\ntag_8:\n    /* \"#utility.yul\":158:159   */\n  0x01\n    /* \"#utility.yul\":148:156   */\n  dup6\n    /* \"#utility.yul\":145:160   */\n  gt\n    /* \"#utility.yul\":137:849   */\n  iszero\n  tag_10\n  jumpi\n    /* \"#utility.yul\":253:257   */\n  dup1\n    /* \"#utility.yul\":248:251   */\n  dup7\n    /* \"#utility.yul\":244:258   */\n  div\n    /* \"#utility.yul\":238:242   */\n  dup2\n    /* \"#utility.yul\":235:259   */\n  gt\n    /* \"#utility.yul\":232:282   */\n  iszero\n  tag_11\n  jumpi\n    /* \"#utility.yul\":262:280   */\n  tag_12\n  tag_13\n  jump\t// in\ntag_12:\n    /* \"#utility.yul\":232:282   */\ntag_11:\n    /* \"#utility.yul\":312:313   */\n  0x01\n    /* \"#utility.yul\":302:310   */\n  dup6\n    /* \"#utility.yul\":298:314   */\n  and\n    /* \"#utility.yul\":295:746   */\n  iszero\n  tag_14\n  jumpi\n    /* \"#utility.yul\":727:731   */\n  dup1\n    /* \"#utility.yul\":720:725   */\n  dup3\n    /* \"#utility.yul\":716:732   */\n  mul\n    /* \"#utility.yul\":707:732   */\n  swap2\n  pop\n    /* \"#utility.yul\":295:746   */\ntag_14:\n    /* \"#utility.yul\":777:781   */\n  dup1\n    /* \"#utility.yul\":771:775   */\n  dup2\n    /* \"#utility.yul\":767:782   */\n  mul\n    /* \"#utility.yul\":759:782   */\n  swap1\n  pop\n    /* \"#utility.yul\":807:839   */\n  tag_15\n    /* \"#utility.yul\":830:838   */\n  dup6\n    /* \"#utility.yul\":807:839   */\n  tag_16\n  jump\t// in\ntag_15:\n    /* \"#utility.yul\":795:839   */\n  swap5\n  pop\n    /* \"#utility.yul\":137:849   */\n  jump(tag_8)\ntag_10:\n    /* \"#utility.yul\":7:855   */\n  swap5\n  pop\n  swap5\n  swap3\n  pop\n  pop\n  pop\n  jump\t// out\n    /* \"#utility.yul\":861:1146   */\ntag_2:\n    /* \"#utility.yul\":921:926   */\n  0x00\n    /* \"#utility.yul\":945:968   */\n  tag_18\n    /* \"#utility.yul\":963:967   */\n  dup3\n    /* \"#utility.yul\":945:968   */\n  tag_19\n  jump\t// in\ntag_18:\n    /* \"#utility.yul\":937:968   */\n  swap2\n  pop\n    /* \"#utility.yul\":989:1016   */\n  tag_20\n    /* \"#utility.yul\":1007:1015   */\n  dup4\n    /* \"#utility.yul\":989:1016   */\n  tag_19\n  jump\t// in\ntag_20:\n    /* \"#utility.yul\":977:1016   */\n  swap3\n  pop\n    /* \"#utility.yul\":1035:1139   */\n  tag_21\n    /* \"#utility.yul\":1072:1138   */\n  0xffffffffffffffffffffffffffffffffffffffffffffffffffffffffffffffff\n    /* \"#utility.yul\":1062:1070   */\n  dup5\n    /* \"#utility.yul\":1056:1060   */\n  dup5\n    /* \"#utility.yul\":1035:1139   */\n  tag_22\n  jump\t// in\ntag_21:\n    /* \"#utility.yul\":1026:1139   */\n  swap1\n  pop\n    /* \"#utility.yul\":861:1146   */\n  swap3\n  swap2\n  pop\n  pop\n  jump\t// out\n    /* \"#utility.yul\":1152:2225   */\ntag_22:\n    /* \"#utility.yul\":1206:1211   */\n  0x00\n    /* \"#utility.yul\":1397:1405   */\n  dup3\n    /* \"#utility.yul\":1387:1427   */\n  tag_24\n  jumpi\n    /* \"#utility.yul\":1418:1419   */\n  0x01\n    /* \"#utility.yul\":1409:1419   */\n  swap1\n  pop\n    /* \"#utility.yul\":1420:1425   */\n  jump(tag_23)\n    /* \"#utility.yul\":1387:1427   */\ntag_24:\n    /* \"#utility.yul\":1446:1450   */\n  dup2\n    /* \"#utility.yul\":1436:1472   */\n  tag_25\n  jumpi\n    /* \"#utility.yul\":1463:1464   */\n  0x00\n    /* \"#utility.yul\":1454:1464   */\n  swap1\n  pop\n    /* \"#utility.yul\":1465:1470   */\n  jump(tag_23)\n    /* \"#utility.yul\":1436:1472   */\ntag_25:\n    /* \"#utility.yul\":1532:1536   */\n  dup2\n    /* \"#utility.yul\":1580:1581   */\n  0x01\n    /* \"#utility.yul\":1575:1602   */\n  dup2\n  eq\n  tag_27\n  jumpi\n    /* \"#utility.yul\":1616:1617   */\n  0x02\n    /* \"#utility.yul\":1611:1802   */\n  dup2\n  eq\n  tag_28\n  jumpi\n    /* \"#utility.yul\":1525:1802   */\n  jump(tag_26)\n    /* \"#utility.yul\":1575:1602   */\ntag_27:\n    /* \"#utility.yul\":1593:1594   */\n  0x01\n    /* \"#utility.yul\":1584:1594   */\n  swap2\n  pop\n    /* \"#utility.yul\":1595:1600   */\n  pop\n  jump(tag_23)\n    /* \"#utility.yul\":1611:1802   */\ntag_28:\n    /* \"#utility.yul\":1656:1659   */\n  0xff\n    /* \"#utility.yul\":1646:1654   */\n  dup5\n    /* \"#utility.yul\":1643:1660   */\n  gt\n    /* \"#utility.yul\":1640:1683   */\n  iszero\n  tag_29\n  jumpi\n    /* \"#utility.yul\":1663:1681   */\n  tag_30\n  tag_13\n  jump\t// in\ntag_30:\n    /* \"#utility.yul\":1640:1683   */\ntag_29:\n    /* \"#utility.yul\":1712:1720   */\n  dup4\n    /* \"#utility.yul\":1709:1710   */\n  0x02\n    /* \"#utility.yul\":1705:1721   */\n  exp\n    /* \"#utility.yul\":1696:1721   */\n  swap2\n  pop\n    /* \"#utility.yul\":1747:1750   */\n  dup5\n    /* \"#utility.yul\":1740:1745   */\n  dup3\n    /* \"#utility.yul\":1737:1751   */\n  gt\n    /* \"#utility.yul\":1734:1774   */\n  iszero\n  tag_31\n  jumpi\n    /* \"#utility.yul\":1754:1772   */\n  tag_32\n  tag_13\n  jump\t// in\ntag_32:\n    /* \"#utility.yul\":1734:1774   */\ntag_31:\n    /* \"#utility.yul\":1787:1792   */\n  pop\n  jump(tag_23)\n    /* \"#utility.yul\":1525:1802   */\ntag_26:\n  pop\n    /* \"#utility.yul\":1911:1913   */\n  0x20\n    /* \"#utility.yul\":1901:1909   */\n  dup4\n    /* \"#utility.yul\":1898:1914   */\n  lt\n    /* \"#utility.yul\":1892:1895   */\n  0x0133\n    /* \"#utility.yul\":1886:1890   */\n  dup4\n    /* \"#utility.yul\":1883:1896   */\n  lt\n    /* \"#utility.yul\":1879:1915   */\n  and\n    /* \"#utility.yul\":1861:1863   */\n  0x4e\n    /* \"#utility.yul\":1851:1859   */\n  dup5\n    /* \"#utility.yul\":1848:1864   */\n  lt\n    /* \"#utility.yul\":1843:1845   */\n  0x0b\n    /* \"#utility.yul\":1837:1841   */\n  dup5\n    /* \"#utility.yul\":1834:1846   */\n  lt\n    /* \"#utility.yul\":1830:1865   */\n  and\n    /* \"#utility.yul\":1814:1925   */\n  or\n    /* \"#utility.yul\":1811:2057   */\n  iszero\n  tag_33\n  jumpi\n    /* \"#utility.yul\":1967:1975   */\n  dup3\n    /* \"#utility.yul\":1961:1965   */\n  dup3\n    /* \"#utility.yul\":1957:1976   */\n  exp\n    /* \"#utility.yul\":1948:1976   */\n  swap1\n  pop\n    /* \"#utility.yul\":2002:2005   */\n  dup4\n    /* \"#utility.yul\":1995:2000   */\n  dup2\n    /* \"#utility.yul\":1992:2006   */\n  gt\n    /* \"#utility.yul\":1989:2029   */\n  iszero\n  tag_34\n  jumpi\n    /* \"#utility.yul\":2009:2027   */\n  tag_35\n  tag_13\n  jump\t// in\ntag_35:\n    /* \"#utility.yul\":1989:2029   */\ntag_34:\n    /* \"#utility.yul\":2042:2047   */\n  jump(tag_23)\n    /* \"#utility.yul\":1811:2057   */\ntag_33:\n    /* \"#utility.yul\":2082:2124   */\n  tag_36\n    /* \"#utility.yul\":2120:2123   */\n  dup5\n    /* \"#utility.yul\":2110:2118   */\n  dup5\n    /* \"#utility.yul\":2104:2108   */\n  dup5\n    /* \"#utility.yul\":2101:2102   */\n  0x01\n    /* \"#utility.yul\":2082:2124   */\n  tag_6\n  jump\t// in\ntag_36:\n    /* \"#utility.yul\":2067:2124   */\n  swap3\n  pop\n  swap1\n  pop\n    /* \"#utility.yul\":2156:2160   */\n  dup2\n    /* \"#utility.yul\":2151:2154   */\n  dup5\n    /* \"#utility.yul\":2147:2161   */\n  div\n    /* \"#utility.yul\":2140:2145   */\n  dup2\n    /* \"#utility.yul\":2137:2162   */\n  gt\n    /* \"#utility.yul\":2134:2185   */\n  iszero\n  tag_37\n  jumpi\n    /* \"#utility.yul\":2165:2183   */\n  tag_38\n  tag_13\n  jump\t// in\ntag_38:\n    /* \"#utility.yul\":2134:2185   */\ntag_37:\n    /* \"#utility.yul\":2214:2218   */\n  dup2\n    /* \"#utility.yul\":2207:2212   */\n  dup2\n    /* \"#utility.yul\":2203:2219   */\n  mul\n    /* \"#utility.yul\":2194:2219   */\n  swap1\n  pop\n    /* \"#utility.yul\":1152:2225   */\ntag_23:\n  swap4\n  swap3\n  pop\n  pop\n  pop\n  jump\t// out\n    /* \"#utility.yul\":2231:2308   */\ntag_19:\n    /* \"#utility.yul\":2268:2275   */\n  0x00\n    /* \"#utility.yul\":2297:2302   */\n  dup2\n    /* \"#utility.yul\":2286:2302   */\n  swap1\n  pop\n    /* \"#utility.yul\":2231:2308   */\n  swap2\n  swap1\n  pop\n  jump\t// out\n    /* \"#utility.yul\":2314:2494   */\ntag_13:\n    /* \"#utility.yul\":2362:2439   */\n  0x4e487b7100000000000000000000000000000000000000000000000000000000\n    /* \"#utility.yul\":2359:2360   */\n  0x00\n    /* \"#utility.yul\":2352:2440   */\n  mstore\n    /* \"#utility.yul\":2459:2463   */\n  0x11\n    /* \"#utility.yul\":2456:2457   */\n  0x04\n    /* \"#utility.yul\":2449:2464   */\n  mstore\n    /* \"#utility.yul\":2483:2487   */\n  0x24\n    /* \"#utility.yul\":2480:2481   */\n  0x00\n    /* \"#utility.yul\":2473:2488   */\n  revert\n    /* \"#utility.yul\":2500:2602   */\ntag_16:\n    /* \"#utility.yul\":2542:2550   */\n  0x00\n    /* \"#utility.yul\":2589:2594   */\n  dup2\n    /* \"#utility.yul\":2586:2587   */\n  0x01\n    /* \"#utility.yul\":2582:2595   */\n  shr\n    /* \"#utility.yul\":2561:2595   */\n  swap1\n  pop\n    /* \"#utility.yul\":2500:2602   */\n  swap2\n  swap1\n  pop\n  jump\t// out\n    /* \"contracts/CryptoZombies.sol\":70:746  contract ZombieFactory {\r... */\ntag_4:\n  dataSize(sub_0)\n  dup1\n  dataOffset(sub_0)\n  0x00\n  codecopy\n  0x00\n  return\nstop\n\nsub_0: assembly {\n        /* \"contracts/CryptoZombies.sol\":70:746  contract ZombieFactory {\r... */\n      mstore(0x40, 0x80)\n      callvalue\n      dup1\n      iszero\n      tag_1\n      jumpi\n      0x00\n      dup1\n      revert\n    tag_1:\n      pop\n      jumpi(tag_2, lt(calldatasize, 0x04))\n      shr(0xe0, calldataload(0x00))\n      dup1\n      0x2052465e\n      eq\n      tag_3\n      jumpi\n      dup1\n      0xdf57a6ec\n      eq\n      tag_4\n      jumpi\n    tag_2:\n      0x00\n      dup1\n      revert\n        /* \"contracts/CryptoZombies.sol\":241:264  Zombie[] public zombies */\n    tag_3:\n      tag_5\n      0x04\n      dup1\n      calldatasize\n      sub\n      dup2\n      add\n      swap1\n      tag_6\n      swap2\n      swap1\n      tag_7\n      jump\t// in\n    tag_6:\n      tag_8\n      jump\t// in\n    tag_5:\n      mload(0x40)\n      tag_9\n      swap3\n      swap2\n      swap1\n      tag_10\n      jump\t// in\n    tag_9:\n      mload(0x40)\n      dup1\n      swap2\n      sub\n      swap1\n      return\n        /* \"contracts/CryptoZombies.sol\":397:577  function _generateRandomDna(string memory _str) public view returns (uint) {\r... */\n    tag_4:\n      tag_11\n      0x04\n      dup1\n      calldatasize\n      sub\n      dup2\n      add\n      swap1\n      tag_12\n      swap2\n      swap1\n      tag_13\n      jump\t// in\n    tag_12:\n      tag_14\n      jump\t// in\n    tag_11:\n      mload(0x40)\n      tag_15\n      swap2\n      swap1\n      tag_16\n      jump\t// in\n    tag_15:\n      mload(0x40)\n      dup1\n      swap2\n      sub\n      swap1\n      return\n        /* \"contracts/CryptoZombies.sol\":241:264  Zombie[] public zombies */\n    tag_8:\n      0x02\n      dup2\n      dup2\n      sload\n      dup2\n      lt\n      tag_17\n      jumpi\n      0x00\n      dup1\n      revert\n    tag_17:\n      swap1\n      0x00\n      mstore\n      keccak256(0x00, 0x20)\n      swap1\n      0x02\n      mul\n      add\n      0x00\n      swap2\n      pop\n      swap1\n      pop\n      dup1\n      0x00\n      add\n      dup1\n      sload\n      tag_19\n      swap1\n      tag_20\n      jump\t// in\n    tag_19:\n      dup1\n      0x1f\n      add\n      0x20\n      dup1\n      swap2\n      div\n      mul\n      0x20\n      add\n      mload(0x40)\n      swap1\n      dup2\n      add\n      0x40\n      mstore\n      dup1\n      swap3\n      swap2\n      swap1\n      dup2\n      dup2\n      mstore\n      0x20\n      add\n      dup3\n      dup1\n      sload\n      tag_21\n      swap1\n      tag_20\n      jump\t// in\n    tag_21:\n      dup1\n      iszero\n      tag_22\n      jumpi\n      dup1\n      0x1f\n      lt\n      tag_23\n      jumpi\n      0x0100\n      dup1\n      dup4\n      sload\n      div\n      mul\n      dup4\n      mstore\n      swap2\n      0x20\n      add\n      swap2\n      jump(tag_22)\n    tag_23:\n      dup3\n      add\n      swap2\n      swap1\n      0x00\n      mstore\n      keccak256(0x00, 0x20)\n      swap1\n    tag_24:\n      dup2\n      sload\n      dup2\n      mstore\n      swap1\n      0x01\n      add\n      swap1\n      0x20\n      add\n      dup1\n      dup4\n      gt\n      tag_24\n      jumpi\n      dup3\n      swap1\n      sub\n      0x1f\n      and\n      dup3\n      add\n      swap2\n    tag_22:\n      pop\n      pop\n      pop\n      pop\n      pop\n      swap1\n      dup1\n      0x01\n      add\n      sload\n      swap1\n      pop\n      dup3\n      jump\t// out\n        /* \"contracts/CryptoZombies.sol\":397:577  function _generateRandomDna(string memory _str) public view returns (uint) {\r... */\n    tag_14:\n        /* \"contracts/CryptoZombies.sol\":466:470  uint */\n      0x00\n        /* \"contracts/CryptoZombies.sol\":483:492  uint rand */\n      dup1\n        /* \"contracts/CryptoZombies.sol\":527:531  _str */\n      dup3\n        /* \"contracts/CryptoZombies.sol\":510:532  abi.encodePacked(_str) */\n      add(0x20, mload(0x40))\n      tag_26\n      swap2\n      swap1\n      tag_27\n      jump\t// in\n    tag_26:\n      mload(0x40)\n      0x20\n      dup2\n      dup4\n      sub\n      sub\n      dup2\n      mstore\n      swap1\n      0x40\n      mstore\n        /* \"contracts/CryptoZombies.sol\":500:533  keccak256(abi.encodePacked(_str)) */\n      dup1\n      mload\n      swap1\n      0x20\n      add\n      keccak256\n        /* \"contracts/CryptoZombies.sol\":495:534  uint(keccak256(abi.encodePacked(_str))) */\n      0x00\n      shr\n        /* \"contracts/CryptoZombies.sol\":483:534  uint rand = uint(keccak256(abi.encodePacked(_str))) */\n      swap1\n      pop\n        /* \"contracts/CryptoZombies.sol\":559:569  dnaModulus */\n      sload(0x01)\n        /* \"contracts/CryptoZombies.sol\":552:556  rand */\n      dup2\n        /* \"contracts/CryptoZombies.sol\":552:569  rand % dnaModulus */\n      tag_28\n      swap2\n      swap1\n      tag_29\n      jump\t// in\n    tag_28:\n        /* \"contracts/CryptoZombies.sol\":545:569  return rand % dnaModulus */\n      swap2\n      pop\n      pop\n        /* \"contracts/CryptoZombies.sol\":397:577  function _generateRandomDna(string memory _str) public view returns (uint) {\r... */\n      swap2\n      swap1\n      pop\n      jump\t// out\n        /* \"#utility.yul\":7:419   */\n    tag_31:\n        /* \"#utility.yul\":85:90   */\n      0x00\n        /* \"#utility.yul\":110:176   */\n      tag_33\n        /* \"#utility.yul\":126:175   */\n      tag_34\n        /* \"#utility.yul\":168:174   */\n      dup5\n        /* \"#utility.yul\":126:175   */\n      tag_35\n      jump\t// in\n    tag_34:\n        /* \"#utility.yul\":110:176   */\n      tag_36\n      jump\t// in\n    tag_33:\n        /* \"#utility.yul\":101:176   */\n      swap1\n      pop\n        /* \"#utility.yul\":199:205   */\n      dup3\n        /* \"#utility.yul\":192:197   */\n      dup2\n        /* \"#utility.yul\":185:206   */\n      mstore\n        /* \"#utility.yul\":237:241   */\n      0x20\n        /* \"#utility.yul\":230:235   */\n      dup2\n        /* \"#utility.yul\":226:242   */\n      add\n        /* \"#utility.yul\":275:278   */\n      dup5\n        /* \"#utility.yul\":266:272   */\n      dup5\n        /* \"#utility.yul\":261:264   */\n      dup5\n        /* \"#utility.yul\":257:273   */\n      add\n        /* \"#utility.yul\":254:279   */\n      gt\n        /* \"#utility.yul\":251:363   */\n      iszero\n      tag_37\n      jumpi\n        /* \"#utility.yul\":282:361   */\n      tag_38\n      tag_39\n      jump\t// in\n    tag_38:\n        /* \"#utility.yul\":251:363   */\n    tag_37:\n        /* \"#utility.yul\":372:413   */\n      tag_40\n        /* \"#utility.yul\":406:412   */\n      dup5\n        /* \"#utility.yul\":401:404   */\n      dup3\n        /* \"#utility.yul\":396:399   */\n      dup6\n        /* \"#utility.yul\":372:413   */\n      tag_41\n      jump\t// in\n    tag_40:\n        /* \"#utility.yul\":91:419   */\n      pop\n        /* \"#utility.yul\":7:419   */\n      swap4\n      swap3\n      pop\n      pop\n      pop\n      jump\t// out\n        /* \"#utility.yul\":439:779   */\n    tag_42:\n        /* \"#utility.yul\":495:500   */\n      0x00\n        /* \"#utility.yul\":544:547   */\n      dup3\n        /* \"#utility.yul\":537:541   */\n      0x1f\n        /* \"#utility.yul\":529:535   */\n      dup4\n        /* \"#utility.yul\":525:542   */\n      add\n        /* \"#utility.yul\":521:548   */\n      slt\n        /* \"#utility.yul\":511:633   */\n      tag_44\n      jumpi\n        /* \"#utility.yul\":552:631   */\n      tag_45\n      tag_46\n      jump\t// in\n    tag_45:\n        /* \"#utility.yul\":511:633   */\n    tag_44:\n        /* \"#utility.yul\":669:675   */\n      dup2\n        /* \"#utility.yul\":656:676   */\n      calldataload\n        /* \"#utility.yul\":694:773   */\n      tag_47\n        /* \"#utility.yul\":769:772   */\n      dup5\n        /* \"#utility.yul\":761:767   */\n      dup3\n        /* \"#utility.yul\":754:758   */\n      0x20\n        /* \"#utility.yul\":746:752   */\n      dup7\n        /* \"#utility.yul\":742:759   */\n      add\n        /* \"#utility.yul\":694:773   */\n      tag_31\n      jump\t// in\n    tag_47:\n        /* \"#utility.yul\":685:773   */\n      swap2\n      pop\n        /* \"#utility.yul\":501:779   */\n      pop\n        /* \"#utility.yul\":439:779   */\n      swap3\n      swap2\n      pop\n      pop\n      jump\t// out\n        /* \"#utility.yul\":785:924   */\n    tag_48:\n        /* \"#utility.yul\":831:836   */\n      0x00\n        /* \"#utility.yul\":869:875   */\n      dup2\n        /* \"#utility.yul\":856:876   */\n      calldataload\n        /* \"#utility.yul\":847:876   */\n      swap1\n      pop\n        /* \"#utility.yul\":885:918   */\n      tag_50\n        /* \"#utility.yul\":912:917   */\n      dup2\n        /* \"#utility.yul\":885:918   */\n      tag_51\n      jump\t// in\n    tag_50:\n        /* \"#utility.yul\":785:924   */\n      swap3\n      swap2\n      pop\n      pop\n      jump\t// out\n        /* \"#utility.yul\":930:1439   */\n    tag_13:\n        /* \"#utility.yul\":999:1005   */\n      0x00\n        /* \"#utility.yul\":1048:1050   */\n      0x20\n        /* \"#utility.yul\":1036:1045   */\n      dup3\n        /* \"#utility.yul\":1027:1034   */\n      dup5\n        /* \"#utility.yul\":1023:1046   */\n      sub\n        /* \"#utility.yul\":1019:1051   */\n      slt\n        /* \"#utility.yul\":1016:1135   */\n      iszero\n      tag_53\n      jumpi\n        /* \"#utility.yul\":1054:1133   */\n      tag_54\n      tag_55\n      jump\t// in\n    tag_54:\n        /* \"#utility.yul\":1016:1135   */\n    tag_53:\n        /* \"#utility.yul\":1202:1203   */\n      0x00\n        /* \"#utility.yul\":1191:1200   */\n      dup3\n        /* \"#utility.yul\":1187:1204   */\n      add\n        /* \"#utility.yul\":1174:1205   */\n      calldataload\n        /* \"#utility.yul\":1232:1250   */\n      0xffffffffffffffff\n        /* \"#utility.yul\":1224:1230   */\n      dup2\n        /* \"#utility.yul\":1221:1251   */\n      gt\n        /* \"#utility.yul\":1218:1335   */\n      iszero\n      tag_56\n      jumpi\n        /* \"#utility.yul\":1254:1333   */\n      tag_57\n      tag_58\n      jump\t// in\n    tag_57:\n        /* \"#utility.yul\":1218:1335   */\n    tag_56:\n        /* \"#utility.yul\":1359:1422   */\n      tag_59\n        /* \"#utility.yul\":1414:1421   */\n      dup5\n        /* \"#utility.yul\":1405:1411   */\n      dup3\n        /* \"#utility.yul\":1394:1403   */\n      dup6\n        /* \"#utility.yul\":1390:1412   */\n      add\n        /* \"#utility.yul\":1359:1422   */\n      tag_42\n      jump\t// in\n    tag_59:\n        /* \"#utility.yul\":1349:1422   */\n      swap2\n      pop\n        /* \"#utility.yul\":1145:1432   */\n      pop\n        /* \"#utility.yul\":930:1439   */\n      swap3\n      swap2\n      pop\n      pop\n      jump\t// out\n        /* \"#utility.yul\":1445:1774   */\n    tag_7:\n        /* \"#utility.yul\":1504:1510   */\n      0x00\n        /* \"#utility.yul\":1553:1555   */\n      0x20\n        /* \"#utility.yul\":1541:1550   */\n      dup3\n        /* \"#utility.yul\":1532:1539   */\n      dup5\n        /* \"#utility.yul\":1528:1551   */\n      sub\n        /* \"#utility.yul\":1524:1556   */\n      slt\n        /* \"#utility.yul\":1521:1640   */\n      iszero\n      tag_61\n      jumpi\n        /* \"#utility.yul\":1559:1638   */\n      tag_62\n      tag_55\n      jump\t// in\n    tag_62:\n        /* \"#utility.yul\":1521:1640   */\n    tag_61:\n        /* \"#utility.yul\":1679:1680   */\n      0x00\n        /* \"#utility.yul\":1704:1757   */\n      tag_63\n        /* \"#utility.yul\":1749:1756   */\n      dup5\n        /* \"#utility.yul\":1740:1746   */\n      dup3\n        /* \"#utility.yul\":1729:1738   */\n      dup6\n        /* \"#utility.yul\":1725:1747   */\n      add\n        /* \"#utility.yul\":1704:1757   */\n      tag_48\n      jump\t// in\n    tag_63:\n        /* \"#utility.yul\":1694:1757   */\n      swap2\n      pop\n        /* \"#utility.yul\":1650:1767   */\n      pop\n        /* \"#utility.yul\":1445:1774   */\n      swap3\n      swap2\n      pop\n      pop\n      jump\t// out\n        /* \"#utility.yul\":1780:2144   */\n    tag_64:\n        /* \"#utility.yul\":1868:1871   */\n      0x00\n        /* \"#utility.yul\":1896:1935   */\n      tag_66\n        /* \"#utility.yul\":1929:1934   */\n      dup3\n        /* \"#utility.yul\":1896:1935   */\n      tag_67\n      jump\t// in\n    tag_66:\n        /* \"#utility.yul\":1951:2022   */\n      tag_68\n        /* \"#utility.yul\":2015:2021   */\n      dup2\n        /* \"#utility.yul\":2010:2013   */\n      dup6\n        /* \"#utility.yul\":1951:2022   */\n      tag_69\n      jump\t// in\n    tag_68:\n        /* \"#utility.yul\":1944:2022   */\n      swap4\n      pop\n        /* \"#utility.yul\":2031:2083   */\n      tag_70\n        /* \"#utility.yul\":2076:2082   */\n      dup2\n        /* \"#utility.yul\":2071:2074   */\n      dup6\n        /* \"#utility.yul\":2064:2068   */\n      0x20\n        /* \"#utility.yul\":2057:2062   */\n      dup7\n        /* \"#utility.yul\":2053:2069   */\n      add\n        /* \"#utility.yul\":2031:2083   */\n      tag_71\n      jump\t// in\n    tag_70:\n        /* \"#utility.yul\":2108:2137   */\n      tag_72\n        /* \"#utility.yul\":2130:2136   */\n      dup2\n        /* \"#utility.yul\":2108:2137   */\n      tag_73\n      jump\t// in\n    tag_72:\n        /* \"#utility.yul\":2103:2106   */\n      dup5\n        /* \"#utility.yul\":2099:2138   */\n      add\n        /* \"#utility.yul\":2092:2138   */\n      swap2\n      pop\n        /* \"#utility.yul\":1872:2144   */\n      pop\n        /* \"#utility.yul\":1780:2144   */\n      swap3\n      swap2\n      pop\n      pop\n      jump\t// out\n        /* \"#utility.yul\":2150:2527   */\n    tag_74:\n        /* \"#utility.yul\":2256:2259   */\n      0x00\n        /* \"#utility.yul\":2284:2323   */\n      tag_76\n        /* \"#utility.yul\":2317:2322   */\n      dup3\n        /* \"#utility.yul\":2284:2323   */\n      tag_67\n      jump\t// in\n    tag_76:\n        /* \"#utility.yul\":2339:2428   */\n      tag_77\n        /* \"#utility.yul\":2421:2427   */\n      dup2\n        /* \"#utility.yul\":2416:2419   */\n      dup6\n        /* \"#utility.yul\":2339:2428   */\n      tag_78\n      jump\t// in\n    tag_77:\n        /* \"#utility.yul\":2332:2428   */\n      swap4\n      pop\n        /* \"#utility.yul\":2437:2489   */\n      tag_79\n        /* \"#utility.yul\":2482:2488   */\n      dup2\n        /* \"#utility.yul\":2477:2480   */\n      dup6\n        /* \"#utility.yul\":2470:2474   */\n      0x20\n        /* \"#utility.yul\":2463:2468   */\n      dup7\n        /* \"#utility.yul\":2459:2475   */\n      add\n        /* \"#utility.yul\":2437:2489   */\n      tag_71\n      jump\t// in\n    tag_79:\n        /* \"#utility.yul\":2514:2520   */\n      dup1\n        /* \"#utility.yul\":2509:2512   */\n      dup5\n        /* \"#utility.yul\":2505:2521   */\n      add\n        /* \"#utility.yul\":2498:2521   */\n      swap2\n      pop\n        /* \"#utility.yul\":2260:2527   */\n      pop\n        /* \"#utility.yul\":2150:2527   */\n      swap3\n      swap2\n      pop\n      pop\n      jump\t// out\n        /* \"#utility.yul\":2533:2651   */\n    tag_80:\n        /* \"#utility.yul\":2620:2644   */\n      tag_82\n        /* \"#utility.yul\":2638:2643   */\n      dup2\n        /* \"#utility.yul\":2620:2644   */\n      tag_83\n      jump\t// in\n    tag_82:\n        /* \"#utility.yul\":2615:2618   */\n      dup3\n        /* \"#utility.yul\":2608:2645   */\n      mstore\n        /* \"#utility.yul\":2533:2651   */\n      pop\n      pop\n      jump\t// out\n        /* \"#utility.yul\":2657:2932   */\n    tag_27:\n        /* \"#utility.yul\":2789:2792   */\n      0x00\n        /* \"#utility.yul\":2811:2906   */\n      tag_85\n        /* \"#utility.yul\":2902:2905   */\n      dup3\n        /* \"#utility.yul\":2893:2899   */\n      dup5\n        /* \"#utility.yul\":2811:2906   */\n      tag_74\n      jump\t// in\n    tag_85:\n        /* \"#utility.yul\":2804:2906   */\n      swap2\n      pop\n        /* \"#utility.yul\":2923:2926   */\n      dup2\n        /* \"#utility.yul\":2916:2926   */\n      swap1\n      pop\n        /* \"#utility.yul\":2657:2932   */\n      swap3\n      swap2\n      pop\n      pop\n      jump\t// out\n        /* \"#utility.yul\":2938:3361   */\n    tag_10:\n        /* \"#utility.yul\":3079:3083   */\n      0x00\n        /* \"#utility.yul\":3117:3119   */\n      0x40\n        /* \"#utility.yul\":3106:3115   */\n      dup3\n        /* \"#utility.yul\":3102:3120   */\n      add\n        /* \"#utility.yul\":3094:3120   */\n      swap1\n      pop\n        /* \"#utility.yul\":3166:3175   */\n      dup2\n        /* \"#utility.yul\":3160:3164   */\n      dup2\n        /* \"#utility.yul\":3156:3176   */\n      sub\n        /* \"#utility.yul\":3152:3153   */\n      0x00\n        /* \"#utility.yul\":3141:3150   */\n      dup4\n        /* \"#utility.yul\":3137:3154   */\n      add\n        /* \"#utility.yul\":3130:3177   */\n      mstore\n        /* \"#utility.yul\":3194:3272   */\n      tag_87\n        /* \"#utility.yul\":3267:3271   */\n      dup2\n        /* \"#utility.yul\":3258:3264   */\n      dup6\n        /* \"#utility.yul\":3194:3272   */\n      tag_64\n      jump\t// in\n    tag_87:\n        /* \"#utility.yul\":3186:3272   */\n      swap1\n      pop\n        /* \"#utility.yul\":3282:3354   */\n      tag_88\n        /* \"#utility.yul\":3350:3352   */\n      0x20\n        /* \"#utility.yul\":3339:3348   */\n      dup4\n        /* \"#utility.yul\":3335:3353   */\n      add\n        /* \"#utility.yul\":3326:3332   */\n      dup5\n        /* \"#utility.yul\":3282:3354   */\n      tag_80\n      jump\t// in\n    tag_88:\n        /* \"#utility.yul\":2938:3361   */\n      swap4\n      swap3\n      pop\n      pop\n      pop\n      jump\t// out\n        /* \"#utility.yul\":3367:3589   */\n    tag_16:\n        /* \"#utility.yul\":3460:3464   */\n      0x00\n        /* \"#utility.yul\":3498:3500   */\n      0x20\n        /* \"#utility.yul\":3487:3496   */\n      dup3\n        /* \"#utility.yul\":3483:3501   */\n      add\n        /* \"#utility.yul\":3475:3501   */\n      swap1\n      pop\n        /* \"#utility.yul\":3511:3582   */\n      tag_90\n        /* \"#utility.yul\":3579:3580   */\n      0x00\n        /* \"#utility.yul\":3568:3577   */\n      dup4\n        /* \"#utility.yul\":3564:3581   */\n      add\n        /* \"#utility.yul\":3555:3561   */\n      dup5\n        /* \"#utility.yul\":3511:3582   */\n      tag_80\n      jump\t// in\n    tag_90:\n        /* \"#utility.yul\":3367:3589   */\n      swap3\n      swap2\n      pop\n      pop\n      jump\t// out\n        /* \"#utility.yul\":3595:3724   */\n    tag_36:\n        /* \"#utility.yul\":3629:3635   */\n      0x00\n        /* \"#utility.yul\":3656:3676   */\n      tag_92\n      tag_93\n      jump\t// in\n    tag_92:\n        /* \"#utility.yul\":3646:3676   */\n      swap1\n      pop\n        /* \"#utility.yul\":3685:3718   */\n      tag_94\n        /* \"#utility.yul\":3713:3717   */\n      dup3\n        /* \"#utility.yul\":3705:3711   */\n      dup3\n        /* \"#utility.yul\":3685:3718   */\n      tag_95\n      jump\t// in\n    tag_94:\n        /* \"#utility.yul\":3595:3724   */\n      swap2\n      swap1\n      pop\n      jump\t// out\n        /* \"#utility.yul\":3730:3805   */\n    tag_93:\n        /* \"#utility.yul\":3763:3769   */\n      0x00\n        /* \"#utility.yul\":3796:3798   */\n      0x40\n        /* \"#utility.yul\":3790:3799   */\n      mload\n        /* \"#utility.yul\":3780:3799   */\n      swap1\n      pop\n        /* \"#utility.yul\":3730:3805   */\n      swap1\n      jump\t// out\n        /* \"#utility.yul\":3811:4119   */\n    tag_35:\n        /* \"#utility.yul\":3873:3877   */\n      0x00\n        /* \"#utility.yul\":3963:3981   */\n      0xffffffffffffffff\n        /* \"#utility.yul\":3955:3961   */\n      dup3\n        /* \"#utility.yul\":3952:3982   */\n      gt\n        /* \"#utility.yul\":3949:4005   */\n      iszero\n      tag_98\n      jumpi\n        /* \"#utility.yul\":3985:4003   */\n      tag_99\n      tag_100\n      jump\t// in\n    tag_99:\n        /* \"#utility.yul\":3949:4005   */\n    tag_98:\n        /* \"#utility.yul\":4023:4052   */\n      tag_101\n        /* \"#utility.yul\":4045:4051   */\n      dup3\n        /* \"#utility.yul\":4023:4052   */\n      tag_73\n      jump\t// in\n    tag_101:\n        /* \"#utility.yul\":4015:4052   */\n      swap1\n      pop\n        /* \"#utility.yul\":4107:4111   */\n      0x20\n        /* \"#utility.yul\":4101:4105   */\n      dup2\n        /* \"#utility.yul\":4097:4112   */\n      add\n        /* \"#utility.yul\":4089:4112   */\n      swap1\n      pop\n        /* \"#utility.yul\":3811:4119   */\n      swap2\n      swap1\n      pop\n      jump\t// out\n        /* \"#utility.yul\":4125:4224   */\n    tag_67:\n        /* \"#utility.yul\":4177:4183   */\n      0x00\n        /* \"#utility.yul\":4211:4216   */\n      dup2\n        /* \"#utility.yul\":4205:4217   */\n      mload\n        /* \"#utility.yul\":4195:4217   */\n      swap1\n      pop\n        /* \"#utility.yul\":4125:4224   */\n      swap2\n      swap1\n      pop\n      jump\t// out\n        /* \"#utility.yul\":4230:4399   */\n    tag_69:\n        /* \"#utility.yul\":4314:4325   */\n      0x00\n        /* \"#utility.yul\":4348:4354   */\n      dup3\n        /* \"#utility.yul\":4343:4346   */\n      dup3\n        /* \"#utility.yul\":4336:4355   */\n      mstore\n        /* \"#utility.yul\":4388:4392   */\n      0x20\n        /* \"#utility.yul\":4383:4386   */\n      dup3\n        /* \"#utility.yul\":4379:4393   */\n      add\n        /* \"#utility.yul\":4364:4393   */\n      swap1\n      pop\n        /* \"#utility.yul\":4230:4399   */\n      swap3\n      swap2\n      pop\n      pop\n      jump\t// out\n        /* \"#utility.yul\":4405:4553   */\n    tag_78:\n        /* \"#utility.yul\":4507:4518   */\n      0x00\n        /* \"#utility.yul\":4544:4547   */\n      dup2\n        /* \"#utility.yul\":4529:4547   */\n      swap1\n      pop\n        /* \"#utility.yul\":4405:4553   */\n      swap3\n      swap2\n      pop\n      pop\n      jump\t// out\n        /* \"#utility.yul\":4559:4636   */\n    tag_83:\n        /* \"#utility.yul\":4596:4603   */\n      0x00\n        /* \"#utility.yul\":4625:4630   */\n      dup2\n        /* \"#utility.yul\":4614:4630   */\n      swap1\n      pop\n        /* \"#utility.yul\":4559:4636   */\n      swap2\n      swap1\n      pop\n      jump\t// out\n        /* \"#utility.yul\":4642:4796   */\n    tag_41:\n        /* \"#utility.yul\":4726:4732   */\n      dup3\n        /* \"#utility.yul\":4721:4724   */\n      dup2\n        /* \"#utility.yul\":4716:4719   */\n      dup4\n        /* \"#utility.yul\":4703:4733   */\n      calldatacopy\n        /* \"#utility.yul\":4788:4789   */\n      0x00\n        /* \"#utility.yul\":4779:4785   */\n      dup4\n        /* \"#utility.yul\":4774:4777   */\n      dup4\n        /* \"#utility.yul\":4770:4786   */\n      add\n        /* \"#utility.yul\":4763:4790   */\n      mstore\n        /* \"#utility.yul\":4642:4796   */\n      pop\n      pop\n      pop\n      jump\t// out\n        /* \"#utility.yul\":4802:5109   */\n    tag_71:\n        /* \"#utility.yul\":4870:4871   */\n      0x00\n        /* \"#utility.yul\":4880:4993   */\n    tag_108:\n        /* \"#utility.yul\":4894:4900   */\n      dup4\n        /* \"#utility.yul\":4891:4892   */\n      dup2\n        /* \"#utility.yul\":4888:4901   */\n      lt\n        /* \"#utility.yul\":4880:4993   */\n      iszero\n      tag_110\n      jumpi\n        /* \"#utility.yul\":4979:4980   */\n      dup1\n        /* \"#utility.yul\":4974:4977   */\n      dup3\n        /* \"#utility.yul\":4970:4981   */\n      add\n        /* \"#utility.yul\":4964:4982   */\n      mload\n        /* \"#utility.yul\":4960:4961   */\n      dup2\n        /* \"#utility.yul\":4955:4958   */\n      dup5\n        /* \"#utility.yul\":4951:4962   */\n      add\n        /* \"#utility.yul\":4944:4983   */\n      mstore\n        /* \"#utility.yul\":4916:4918   */\n      0x20\n        /* \"#utility.yul\":4913:4914   */\n      dup2\n        /* \"#utility.yul\":4909:4919   */\n      add\n        /* \"#utility.yul\":4904:4919   */\n      swap1\n      pop\n        /* \"#utility.yul\":4880:4993   */\n      jump(tag_108)\n    tag_110:\n        /* \"#utility.yul\":5011:5017   */\n      dup4\n        /* \"#utility.yul\":5008:5009   */\n      dup2\n        /* \"#utility.yul\":5005:5018   */\n      gt\n        /* \"#utility.yul\":5002:5103   */\n      iszero\n      tag_111\n      jumpi\n        /* \"#utility.yul\":5091:5092   */\n      0x00\n        /* \"#utility.yul\":5082:5088   */\n      dup5\n        /* \"#utility.yul\":5077:5080   */\n      dup5\n        /* \"#utility.yul\":5073:5089   */\n      add\n        /* \"#utility.yul\":5066:5093   */\n      mstore\n        /* \"#utility.yul\":5002:5103   */\n    tag_111:\n        /* \"#utility.yul\":4851:5109   */\n      pop\n        /* \"#utility.yul\":4802:5109   */\n      pop\n      pop\n      pop\n      jump\t// out\n        /* \"#utility.yul\":5115:5435   */\n    tag_20:\n        /* \"#utility.yul\":5159:5165   */\n      0x00\n        /* \"#utility.yul\":5196:5197   */\n      0x02\n        /* \"#utility.yul\":5190:5194   */\n      dup3\n        /* \"#utility.yul\":5186:5198   */\n      div\n        /* \"#utility.yul\":5176:5198   */\n      swap1\n      pop\n        /* \"#utility.yul\":5243:5244   */\n      0x01\n        /* \"#utility.yul\":5237:5241   */\n      dup3\n        /* \"#utility.yul\":5233:5245   */\n      and\n        /* \"#utility.yul\":5264:5282   */\n      dup1\n        /* \"#utility.yul\":5254:5335   */\n      tag_113\n      jumpi\n        /* \"#utility.yul\":5320:5324   */\n      0x7f\n        /* \"#utility.yul\":5312:5318   */\n      dup3\n        /* \"#utility.yul\":5308:5325   */\n      and\n        /* \"#utility.yul\":5298:5325   */\n      swap2\n      pop\n        /* \"#utility.yul\":5254:5335   */\n    tag_113:\n        /* \"#utility.yul\":5382:5384   */\n      0x20\n        /* \"#utility.yul\":5374:5380   */\n      dup3\n        /* \"#utility.yul\":5371:5385   */\n      lt\n        /* \"#utility.yul\":5351:5369   */\n      dup2\n        /* \"#utility.yul\":5348:5386   */\n      eq\n        /* \"#utility.yul\":5345:5429   */\n      iszero\n      tag_114\n      jumpi\n        /* \"#utility.yul\":5401:5419   */\n      tag_115\n      tag_116\n      jump\t// in\n    tag_115:\n        /* \"#utility.yul\":5345:5429   */\n    tag_114:\n        /* \"#utility.yul\":5166:5435   */\n      pop\n        /* \"#utility.yul\":5115:5435   */\n      swap2\n      swap1\n      pop\n      jump\t// out\n        /* \"#utility.yul\":5441:5722   */\n    tag_95:\n        /* \"#utility.yul\":5524:5551   */\n      tag_118\n        /* \"#utility.yul\":5546:5550   */\n      dup3\n        /* \"#utility.yul\":5524:5551   */\n      tag_73\n      jump\t// in\n    tag_118:\n        /* \"#utility.yul\":5516:5522   */\n      dup2\n        /* \"#utility.yul\":5512:5552   */\n      add\n        /* \"#utility.yul\":5654:5660   */\n      dup2\n        /* \"#utility.yul\":5642:5652   */\n      dup2\n        /* \"#utility.yul\":5639:5661   */\n      lt\n        /* \"#utility.yul\":5618:5636   */\n      0xffffffffffffffff\n        /* \"#utility.yul\":5606:5616   */\n      dup3\n        /* \"#utility.yul\":5603:5637   */\n      gt\n        /* \"#utility.yul\":5600:5662   */\n      or\n        /* \"#utility.yul\":5597:5685   */\n      iszero\n      tag_119\n      jumpi\n        /* \"#utility.yul\":5665:5683   */\n      tag_120\n      tag_100\n      jump\t// in\n    tag_120:\n        /* \"#utility.yul\":5597:5685   */\n    tag_119:\n        /* \"#utility.yul\":5705:5715   */\n      dup1\n        /* \"#utility.yul\":5701:5703   */\n      0x40\n        /* \"#utility.yul\":5694:5716   */\n      mstore\n        /* \"#utility.yul\":5484:5722   */\n      pop\n        /* \"#utility.yul\":5441:5722   */\n      pop\n      pop\n      jump\t// out\n        /* \"#utility.yul\":5728:5904   */\n    tag_29:\n        /* \"#utility.yul\":5760:5761   */\n      0x00\n        /* \"#utility.yul\":5777:5797   */\n      tag_122\n        /* \"#utility.yul\":5795:5796   */\n      dup3\n        /* \"#utility.yul\":5777:5797   */\n      tag_83\n      jump\t// in\n    tag_122:\n        /* \"#utility.yul\":5772:5797   */\n      swap2\n      pop\n        /* \"#utility.yul\":5811:5831   */\n      tag_123\n        /* \"#utility.yul\":5829:5830   */\n      dup4\n        /* \"#utility.yul\":5811:5831   */\n      tag_83\n      jump\t// in\n    tag_123:\n        /* \"#utility.yul\":5806:5831   */\n      swap3\n      pop\n        /* \"#utility.yul\":5850:5851   */\n      dup3\n        /* \"#utility.yul\":5840:5875   */\n      tag_124\n      jumpi\n        /* \"#utility.yul\":5855:5873   */\n      tag_125\n      tag_126\n      jump\t// in\n    tag_125:\n        /* \"#utility.yul\":5840:5875   */\n    tag_124:\n        /* \"#utility.yul\":5896:5897   */\n      dup3\n        /* \"#utility.yul\":5893:5894   */\n      dup3\n        /* \"#utility.yul\":5889:5898   */\n      mod\n        /* \"#utility.yul\":5884:5898   */\n      swap1\n      pop\n        /* \"#utility.yul\":5728:5904   */\n      swap3\n      swap2\n      pop\n      pop\n      jump\t// out\n        /* \"#utility.yul\":5910:6090   */\n    tag_126:\n        /* \"#utility.yul\":5958:6035   */\n      0x4e487b7100000000000000000000000000000000000000000000000000000000\n        /* \"#utility.yul\":5955:5956   */\n      0x00\n        /* \"#utility.yul\":5948:6036   */\n      mstore\n        /* \"#utility.yul\":6055:6059   */\n      0x12\n        /* \"#utility.yul\":6052:6053   */\n      0x04\n        /* \"#utility.yul\":6045:6060   */\n      mstore\n        /* \"#utility.yul\":6079:6083   */\n      0x24\n        /* \"#utility.yul\":6076:6077   */\n      0x00\n        /* \"#utility.yul\":6069:6084   */\n      revert\n        /* \"#utility.yul\":6096:6276   */\n    tag_116:\n        /* \"#utility.yul\":6144:6221   */\n      0x4e487b7100000000000000000000000000000000000000000000000000000000\n        /* \"#utility.yul\":6141:6142   */\n      0x00\n        /* \"#utility.yul\":6134:6222   */\n      mstore\n        /* \"#utility.yul\":6241:6245   */\n      0x22\n        /* \"#utility.yul\":6238:6239   */\n      0x04\n        /* \"#utility.yul\":6231:6246   */\n      mstore\n        /* \"#utility.yul\":6265:6269   */\n      0x24\n        /* \"#utility.yul\":6262:6263   */\n      0x00\n        /* \"#utility.yul\":6255:6270   */\n      revert\n        /* \"#utility.yul\":6282:6462   */\n    tag_100:\n        /* \"#utility.yul\":6330:6407   */\n      0x4e487b7100000000000000000000000000000000000000000000000000000000\n        /* \"#utility.yul\":6327:6328   */\n      0x00\n        /* \"#utility.yul\":6320:6408   */\n      mstore\n        /* \"#utility.yul\":6427:6431   */\n      0x41\n        /* \"#utility.yul\":6424:6425   */\n      0x04\n        /* \"#utility.yul\":6417:6432   */\n      mstore\n        /* \"#utility.yul\":6451:6455   */\n      0x24\n        /* \"#utility.yul\":6448:6449   */\n      0x00\n        /* \"#utility.yul\":6441:6456   */\n      revert\n        /* \"#utility.yul\":6468:6585   */\n    tag_46:\n        /* \"#utility.yul\":6577:6578   */\n      0x00\n        /* \"#utility.yul\":6574:6575   */\n      dup1\n        /* \"#utility.yul\":6567:6579   */\n      revert\n        /* \"#utility.yul\":6591:6708   */\n    tag_39:\n        /* \"#utility.yul\":6700:6701   */\n      0x00\n        /* \"#utility.yul\":6697:6698   */\n      dup1\n        /* \"#utility.yul\":6690:6702   */\n      revert\n        /* \"#utility.yul\":6714:6831   */\n    tag_58:\n        /* \"#utility.yul\":6823:6824   */\n      0x00\n        /* \"#utility.yul\":6820:6821   */\n      dup1\n        /* \"#utility.yul\":6813:6825   */\n      revert\n        /* \"#utility.yul\":6837:6954   */\n    tag_55:\n        /* \"#utility.yul\":6946:6947   */\n      0x00\n        /* \"#utility.yul\":6943:6944   */\n      dup1\n        /* \"#utility.yul\":6936:6948   */\n      revert\n        /* \"#utility.yul\":6960:7062   */\n    tag_73:\n        /* \"#utility.yul\":7001:7007   */\n      0x00\n        /* \"#utility.yul\":7052:7054   */\n      0x1f\n        /* \"#utility.yul\":7048:7055   */\n      not\n        /* \"#utility.yul\":7043:7045   */\n      0x1f\n        /* \"#utility.yul\":7036:7041   */\n      dup4\n        /* \"#utility.yul\":7032:7046   */\n      add\n        /* \"#utility.yul\":7028:7056   */\n      and\n        /* \"#utility.yul\":7018:7056   */\n      swap1\n      pop\n        /* \"#utility.yul\":6960:7062   */\n      swap2\n      swap1\n      pop\n      jump\t// out\n        /* \"#utility.yul\":7068:7190   */\n    tag_51:\n        /* \"#utility.yul\":7141:7165   */\n      tag_136\n        /* \"#utility.yul\":7159:7164   */\n      dup2\n        /* \"#utility.yul\":7141:7165   */\n      tag_83\n      jump\t// in\n    tag_136:\n        /* \"#utility.yul\":7134:7139   */\n      dup2\n        /* \"#utility.yul\":7131:7166   */\n      eq\n        /* \"#utility.yul\":7121:7184   */\n      tag_137\n      jumpi\n        /* \"#utility.yul\":7180:7181   */\n      0x00\n        /* \"#utility.yul\":7177:7178   */\n      dup1\n        /* \"#utility.yul\":7170:7182   */\n      revert\n        /* \"#utility.yul\":7121:7184   */\n    tag_137:\n        /* \"#utility.yul\":7068:7190   */\n      pop\n      jump\t// out\n\n    auxdata: 0xa26469706673582212206beb5f0ce4d80809b27f7bb901065da678bd977c440643e62007bc6632399bc664736f6c63430008070033\n}\n",
				"bytecode": {
					"linkReferences": {},
					"object": "60806040526010600055600054600a6100189190610080565b60015534801561002757600080fd5b506101e4565b6000808291508390505b600185111561007757808604811115610053576100526101a8565b5b60018516156100625780820291505b8081029050610070856101d7565b9450610037565b94509492505050565b600061008b8261019e565b91506100968361019e565b92506100c37fffffffffffffffffffffffffffffffffffffffffffffffffffffffffffffffff84846100cb565b905092915050565b6000826100db5760019050610197565b816100e95760009050610197565b81600181146100ff576002811461010957610138565b6001915050610197565b60ff84111561011b5761011a6101a8565b5b8360020a915084821115610132576101316101a8565b5b50610197565b5060208310610133831016604e8410600b841016171561016d5782820a905083811115610168576101676101a8565b5b610197565b61017a848484600161002d565b92509050818404811115610191576101906101a8565b5b81810290505b9392505050565b6000819050919050565b7f4e487b7100000000000000000000000000000000000000000000000000000000600052601160045260246000fd5b60008160011c9050919050565b6105cf806101f36000396000f3fe608060405234801561001057600080fd5b50600436106100365760003560e01c80632052465e1461003b578063df57a6ec1461006c575b600080fd5b6100556004803603810190610050919061026b565b61009c565b604051610063929190610328565b60405180910390f35b61008660048036038101906100819190610222565b610158565b6040516100939190610358565b60405180910390f35b600281815481106100ac57600080fd5b90600052602060002090600202016000915090508060000180546100cf9061043c565b80601f01602080910402602001604051908101604052809291908181526020018280546100fb9061043c565b80156101485780601f1061011d57610100808354040283529160200191610148565b820191906000526020600020905b81548152906001019060200180831161012b57829003601f168201915b5050505050908060010154905082565b6000808260405160200161016c9190610311565b6040516020818303038152906040528051906020012060001c905060015481610195919061049f565b915050919050565b60006101b06101ab84610398565b610373565b9050828152602081018484840111156101cc576101cb610562565b5b6101d78482856103fa565b509392505050565b600082601f8301126101f4576101f361055d565b5b813561020484826020860161019d565b91505092915050565b60008135905061021c81610582565b92915050565b6000602082840312156102385761023761056c565b5b600082013567ffffffffffffffff81111561025657610255610567565b5b610262848285016101df565b91505092915050565b6000602082840312156102815761028061056c565b5b600061028f8482850161020d565b91505092915050565b60006102a3826103c9565b6102ad81856103d4565b93506102bd818560208601610409565b6102c681610571565b840191505092915050565b60006102dc826103c9565b6102e681856103e5565b93506102f6818560208601610409565b80840191505092915050565b61030b816103f0565b82525050565b600061031d82846102d1565b915081905092915050565b600060408201905081810360008301526103428185610298565b90506103516020830184610302565b9392505050565b600060208201905061036d6000830184610302565b92915050565b600061037d61038e565b9050610389828261046e565b919050565b6000604051905090565b600067ffffffffffffffff8211156103b3576103b261052e565b5b6103bc82610571565b9050602081019050919050565b600081519050919050565b600082825260208201905092915050565b600081905092915050565b6000819050919050565b82818337600083830152505050565b60005b8381101561042757808201518184015260208101905061040c565b83811115610436576000848401525b50505050565b6000600282049050600182168061045457607f821691505b60208210811415610468576104676104ff565b5b50919050565b61047782610571565b810181811067ffffffffffffffff821117156104965761049561052e565b5b80604052505050565b60006104aa826103f0565b91506104b5836103f0565b9250826104c5576104c46104d0565b5b828206905092915050565b7f4e487b7100000000000000000000000000000000000000000000000000000000600052601260045260246000fd5b7f4e487b7100000000000000000000000000000000000000000000000000000000600052602260045260246000fd5b7f4e487b7100000000000000000000000000000000000000000000000000000000600052604160045260246000fd5b600080fd5b600080fd5b600080fd5b600080fd5b6000601f19601f8301169050919050565b61058b816103f0565b811461059657600080fd5b5056fea26469706673582212206beb5f0ce4d80809b27f7bb901065da678bd977c440643e62007bc6632399bc664736f6c63430008070033",
					"opcodes": "PUSH1 0x80 PUSH1 0x40 MSTORE PUSH1 0x10 PUSH1 0x0 SSTORE PUSH1 0x0 SLOAD PUSH1 0xA PUSH2 0x18 SWAP2 SWAP1 PUSH2 0x80 JUMP JUMPDEST PUSH1 0x1 SSTORE CALLVALUE DUP1 ISZERO PUSH2 0x27 JUMPI PUSH1 0x0 DUP1 REVERT JUMPDEST POP PUSH2 0x1E4 JUMP JUMPDEST PUSH1 0x0 DUP1 DUP3 SWAP2 POP DUP4 SWAP1 POP JUMPDEST PUSH1 0x1 DUP6 GT ISZERO PUSH2 0x77 JUMPI DUP1 DUP7 DIV DUP2 GT ISZERO PUSH2 0x53 JUMPI PUSH2 0x52 PUSH2 0x1A8 JUMP JUMPDEST JUMPDEST PUSH1 0x1 DUP6 AND ISZERO PUSH2 0x62 JUMPI DUP1 DUP3 MUL SWAP2 POP JUMPDEST DUP1 DUP2 MUL SWAP1 POP PUSH2 0x70 DUP6 PUSH2 0x1D7 JUMP JUMPDEST SWAP5 POP PUSH2 0x37 JUMP JUMPDEST SWAP5 POP SWAP5 SWAP3 POP POP POP JUMP JUMPDEST PUSH1 0x0 PUSH2 0x8B DUP3 PUSH2 0x19E JUMP JUMPDEST SWAP2 POP PUSH2 0x96 DUP4 PUSH2 0x19E JUMP JUMPDEST SWAP3 POP PUSH2 0xC3 PUSH32 0xFFFFFFFFFFFFFFFFFFFFFFFFFFFFFFFFFFFFFFFFFFFFFFFFFFFFFFFFFFFFFFFF DUP5 DUP5 PUSH2 0xCB JUMP JUMPDEST SWAP1 POP SWAP3 SWAP2 POP POP JUMP JUMPDEST PUSH1 0x0 DUP3 PUSH2 0xDB JUMPI PUSH1 0x1 SWAP1 POP PUSH2 0x197 JUMP JUMPDEST DUP2 PUSH2 0xE9 JUMPI PUSH1 0x0 SWAP1 POP PUSH2 0x197 JUMP JUMPDEST DUP2 PUSH1 0x1 DUP2 EQ PUSH2 0xFF JUMPI PUSH1 0x2 DUP2 EQ PUSH2 0x109 JUMPI PUSH2 0x138 JUMP JUMPDEST PUSH1 0x1 SWAP2 POP POP PUSH2 0x197 JUMP JUMPDEST PUSH1 0xFF DUP5 GT ISZERO PUSH2 0x11B JUMPI PUSH2 0x11A PUSH2 0x1A8 JUMP JUMPDEST JUMPDEST DUP4 PUSH1 0x2 EXP SWAP2 POP DUP5 DUP3 GT ISZERO PUSH2 0x132 JUMPI PUSH2 0x131 PUSH2 0x1A8 JUMP JUMPDEST JUMPDEST POP PUSH2 0x197 JUMP JUMPDEST POP PUSH1 0x20 DUP4 LT PUSH2 0x133 DUP4 LT AND PUSH1 0x4E DUP5 LT PUSH1 0xB DUP5 LT AND OR ISZERO PUSH2 0x16D JUMPI DUP3 DUP3 EXP SWAP1 POP DUP4 DUP2 GT ISZERO PUSH2 0x168 JUMPI PUSH2 0x167 PUSH2 0x1A8 JUMP JUMPDEST JUMPDEST PUSH2 0x197 JUMP JUMPDEST PUSH2 0x17A DUP5 DUP5 DUP5 PUSH1 0x1 PUSH2 0x2D JUMP JUMPDEST SWAP3 POP SWAP1 POP DUP2 DUP5 DIV DUP2 GT ISZERO PUSH2 0x191 JUMPI PUSH2 0x190 PUSH2 0x1A8 JUMP JUMPDEST JUMPDEST DUP2 DUP2 MUL SWAP1 POP JUMPDEST SWAP4 SWAP3 POP POP POP JUMP JUMPDEST PUSH1 0x0 DUP2 SWAP1 POP SWAP2 SWAP1 POP JUMP JUMPDEST PUSH32 0x4E487B7100000000000000000000000000000000000000000000000000000000 PUSH1 0x0 MSTORE PUSH1 0x11 PUSH1 0x4 MSTORE PUSH1 0x24 PUSH1 0x0 REVERT JUMPDEST PUSH1 0x0 DUP2 PUSH1 0x1 SHR SWAP1 POP SWAP2 SWAP1 POP JUMP JUMPDEST PUSH2 0x5CF DUP1 PUSH2 0x1F3 PUSH1 0x0 CODECOPY PUSH1 0x0 RETURN INVALID PUSH1 0x80 PUSH1 0x40 MSTORE CALLVALUE DUP1 ISZERO PUSH2 0x10 JUMPI PUSH1 0x0 DUP1 REVERT JUMPDEST POP PUSH1 0x4 CALLDATASIZE LT PUSH2 0x36 JUMPI PUSH1 0x0 CALLDATALOAD PUSH1 0xE0 SHR DUP1 PUSH4 0x2052465E EQ PUSH2 0x3B JUMPI DUP1 PUSH4 0xDF57A6EC EQ PUSH2 0x6C JUMPI JUMPDEST PUSH1 0x0 DUP1 REVERT JUMPDEST PUSH2 0x55 PUSH1 0x4 DUP1 CALLDATASIZE SUB DUP2 ADD SWAP1 PUSH2 0x50 SWAP2 SWAP1 PUSH2 0x26B JUMP JUMPDEST PUSH2 0x9C JUMP JUMPDEST PUSH1 0x40 MLOAD PUSH2 0x63 SWAP3 SWAP2 SWAP1 PUSH2 0x328 JUMP JUMPDEST PUSH1 0x40 MLOAD DUP1 SWAP2 SUB SWAP1 RETURN JUMPDEST PUSH2 0x86 PUSH1 0x4 DUP1 CALLDATASIZE SUB DUP2 ADD SWAP1 PUSH2 0x81 SWAP2 SWAP1 PUSH2 0x222 JUMP JUMPDEST PUSH2 0x158 JUMP JUMPDEST PUSH1 0x40 MLOAD PUSH2 0x93 SWAP2 SWAP1 PUSH2 0x358 JUMP JUMPDEST PUSH1 0x40 MLOAD DUP1 SWAP2 SUB SWAP1 RETURN JUMPDEST PUSH1 0x2 DUP2 DUP2 SLOAD DUP2 LT PUSH2 0xAC JUMPI PUSH1 0x0 DUP1 REVERT JUMPDEST SWAP1 PUSH1 0x0 MSTORE PUSH1 0x20 PUSH1 0x0 KECCAK256 SWAP1 PUSH1 0x2 MUL ADD PUSH1 0x0 SWAP2 POP SWAP1 POP DUP1 PUSH1 0x0 ADD DUP1 SLOAD PUSH2 0xCF SWAP1 PUSH2 0x43C JUMP JUMPDEST DUP1 PUSH1 0x1F ADD PUSH1 0x20 DUP1 SWAP2 DIV MUL PUSH1 0x20 ADD PUSH1 0x40 MLOAD SWAP1 DUP2 ADD PUSH1 0x40 MSTORE DUP1 SWAP3 SWAP2 SWAP1 DUP2 DUP2 MSTORE PUSH1 0x20 ADD DUP3 DUP1 SLOAD PUSH2 0xFB SWAP1 PUSH2 0x43C JUMP JUMPDEST DUP1 ISZERO PUSH2 0x148 JUMPI DUP1 PUSH1 0x1F LT PUSH2 0x11D JUMPI PUSH2 0x100 DUP1 DUP4 SLOAD DIV MUL DUP4 MSTORE SWAP2 PUSH1 0x20 ADD SWAP2 PUSH2 0x148 JUMP JUMPDEST DUP3 ADD SWAP2 SWAP1 PUSH1 0x0 MSTORE PUSH1 0x20 PUSH1 0x0 KECCAK256 SWAP1 JUMPDEST DUP2 SLOAD DUP2 MSTORE SWAP1 PUSH1 0x1 ADD SWAP1 PUSH1 0x20 ADD DUP1 DUP4 GT PUSH2 0x12B JUMPI DUP3 SWAP1 SUB PUSH1 0x1F AND DUP3 ADD SWAP2 JUMPDEST POP POP POP POP POP SWAP1 DUP1 PUSH1 0x1 ADD SLOAD SWAP1 POP DUP3 JUMP JUMPDEST PUSH1 0x0 DUP1 DUP3 PUSH1 0x40 MLOAD PUSH1 0x20 ADD PUSH2 0x16C SWAP2 SWAP1 PUSH2 0x311 JUMP JUMPDEST PUSH1 0x40 MLOAD PUSH1 0x20 DUP2 DUP4 SUB SUB DUP2 MSTORE SWAP1 PUSH1 0x40 MSTORE DUP1 MLOAD SWAP1 PUSH1 0x20 ADD KECCAK256 PUSH1 0x0 SHR SWAP1 POP PUSH1 0x1 SLOAD DUP2 PUSH2 0x195 SWAP2 SWAP1 PUSH2 0x49F JUMP JUMPDEST SWAP2 POP POP SWAP2 SWAP1 POP JUMP JUMPDEST PUSH1 0x0 PUSH2 0x1B0 PUSH2 0x1AB DUP5 PUSH2 0x398 JUMP JUMPDEST PUSH2 0x373 JUMP JUMPDEST SWAP1 POP DUP3 DUP2 MSTORE PUSH1 0x20 DUP2 ADD DUP5 DUP5 DUP5 ADD GT ISZERO PUSH2 0x1CC JUMPI PUSH2 0x1CB PUSH2 0x562 JUMP JUMPDEST JUMPDEST PUSH2 0x1D7 DUP5 DUP3 DUP6 PUSH2 0x3FA JUMP JUMPDEST POP SWAP4 SWAP3 POP POP POP JUMP JUMPDEST PUSH1 0x0 DUP3 PUSH1 0x1F DUP4 ADD SLT PUSH2 0x1F4 JUMPI PUSH2 0x1F3 PUSH2 0x55D JUMP JUMPDEST JUMPDEST DUP2 CALLDATALOAD PUSH2 0x204 DUP5 DUP3 PUSH1 0x20 DUP7 ADD PUSH2 0x19D JUMP JUMPDEST SWAP2 POP POP SWAP3 SWAP2 POP POP JUMP JUMPDEST PUSH1 0x0 DUP2 CALLDATALOAD SWAP1 POP PUSH2 0x21C DUP2 PUSH2 0x582 JUMP JUMPDEST SWAP3 SWAP2 POP POP JUMP JUMPDEST PUSH1 0x0 PUSH1 0x20 DUP3 DUP5 SUB SLT ISZERO PUSH2 0x238 JUMPI PUSH2 0x237 PUSH2 0x56C JUMP JUMPDEST JUMPDEST PUSH1 0x0 DUP3 ADD CALLDATALOAD PUSH8 0xFFFFFFFFFFFFFFFF DUP2 GT ISZERO PUSH2 0x256 JUMPI PUSH2 0x255 PUSH2 0x567 JUMP JUMPDEST JUMPDEST PUSH2 0x262 DUP5 DUP3 DUP6 ADD PUSH2 0x1DF JUMP JUMPDEST SWAP2 POP POP SWAP3 SWAP2 POP POP JUMP JUMPDEST PUSH1 0x0 PUSH1 0x20 DUP3 DUP5 SUB SLT ISZERO PUSH2 0x281 JUMPI PUSH2 0x280 PUSH2 0x56C JUMP JUMPDEST JUMPDEST PUSH1 0x0 PUSH2 0x28F DUP5 DUP3 DUP6 ADD PUSH2 0x20D JUMP JUMPDEST SWAP2 POP POP SWAP3 SWAP2 POP POP JUMP JUMPDEST PUSH1 0x0 PUSH2 0x2A3 DUP3 PUSH2 0x3C9 JUMP JUMPDEST PUSH2 0x2AD DUP2 DUP6 PUSH2 0x3D4 JUMP JUMPDEST SWAP4 POP PUSH2 0x2BD DUP2 DUP6 PUSH1 0x20 DUP7 ADD PUSH2 0x409 JUMP JUMPDEST PUSH2 0x2C6 DUP2 PUSH2 0x571 JUMP JUMPDEST DUP5 ADD SWAP2 POP POP SWAP3 SWAP2 POP POP JUMP JUMPDEST PUSH1 0x0 PUSH2 0x2DC DUP3 PUSH2 0x3C9 JUMP JUMPDEST PUSH2 0x2E6 DUP2 DUP6 PUSH2 0x3E5 JUMP JUMPDEST SWAP4 POP PUSH2 0x2F6 DUP2 DUP6 PUSH1 0x20 DUP7 ADD PUSH2 0x409 JUMP JUMPDEST DUP1 DUP5 ADD SWAP2 POP POP SWAP3 SWAP2 POP POP JUMP JUMPDEST PUSH2 0x30B DUP2 PUSH2 0x3F0 JUMP JUMPDEST DUP3 MSTORE POP POP JUMP JUMPDEST PUSH1 0x0 PUSH2 0x31D DUP3 DUP5 PUSH2 0x2D1 JUMP JUMPDEST SWAP2 POP DUP2 SWAP1 POP SWAP3 SWAP2 POP POP JUMP JUMPDEST PUSH1 0x0 PUSH1 0x40 DUP3 ADD SWAP1 POP DUP2 DUP2 SUB PUSH1 0x0 DUP4 ADD MSTORE PUSH2 0x342 DUP2 DUP6 PUSH2 0x298 JUMP JUMPDEST SWAP1 POP PUSH2 0x351 PUSH1 0x20 DUP4 ADD DUP5 PUSH2 0x302 JUMP JUMPDEST SWAP4 SWAP3 POP POP POP JUMP JUMPDEST PUSH1 0x0 PUSH1 0x20 DUP3 ADD SWAP1 POP PUSH2 0x36D PUSH1 0x0 DUP4 ADD DUP5 PUSH2 0x302 JUMP JUMPDEST SWAP3 SWAP2 POP POP JUMP JUMPDEST PUSH1 0x0 PUSH2 0x37D PUSH2 0x38E JUMP JUMPDEST SWAP1 POP PUSH2 0x389 DUP3 DUP3 PUSH2 0x46E JUMP JUMPDEST SWAP2 SWAP1 POP JUMP JUMPDEST PUSH1 0x0 PUSH1 0x40 MLOAD SWAP1 POP SWAP1 JUMP JUMPDEST PUSH1 0x0 PUSH8 0xFFFFFFFFFFFFFFFF DUP3 GT ISZERO PUSH2 0x3B3 JUMPI PUSH2 0x3B2 PUSH2 0x52E JUMP JUMPDEST JUMPDEST PUSH2 0x3BC DUP3 PUSH2 0x571 JUMP JUMPDEST SWAP1 POP PUSH1 0x20 DUP2 ADD SWAP1 POP SWAP2 SWAP1 POP JUMP JUMPDEST PUSH1 0x0 DUP2 MLOAD SWAP1 POP SWAP2 SWAP1 POP JUMP JUMPDEST PUSH1 0x0 DUP3 DUP3 MSTORE PUSH1 0x20 DUP3 ADD SWAP1 POP SWAP3 SWAP2 POP POP JUMP JUMPDEST PUSH1 0x0 DUP2 SWAP1 POP SWAP3 SWAP2 POP POP JUMP JUMPDEST PUSH1 0x0 DUP2 SWAP1 POP SWAP2 SWAP1 POP JUMP JUMPDEST DUP3 DUP2 DUP4 CALLDATACOPY PUSH1 0x0 DUP4 DUP4 ADD MSTORE POP POP POP JUMP JUMPDEST PUSH1 0x0 JUMPDEST DUP4 DUP2 LT ISZERO PUSH2 0x427 JUMPI DUP1 DUP3 ADD MLOAD DUP2 DUP5 ADD MSTORE PUSH1 0x20 DUP2 ADD SWAP1 POP PUSH2 0x40C JUMP JUMPDEST DUP4 DUP2 GT ISZERO PUSH2 0x436 JUMPI PUSH1 0x0 DUP5 DUP5 ADD MSTORE JUMPDEST POP POP POP POP JUMP JUMPDEST PUSH1 0x0 PUSH1 0x2 DUP3 DIV SWAP1 POP PUSH1 0x1 DUP3 AND DUP1 PUSH2 0x454 JUMPI PUSH1 0x7F DUP3 AND SWAP2 POP JUMPDEST PUSH1 0x20 DUP3 LT DUP2 EQ ISZERO PUSH2 0x468 JUMPI PUSH2 0x467 PUSH2 0x4FF JUMP JUMPDEST JUMPDEST POP SWAP2 SWAP1 POP JUMP JUMPDEST PUSH2 0x477 DUP3 PUSH2 0x571 JUMP JUMPDEST DUP2 ADD DUP2 DUP2 LT PUSH8 0xFFFFFFFFFFFFFFFF DUP3 GT OR ISZERO PUSH2 0x496 JUMPI PUSH2 0x495 PUSH2 0x52E JUMP JUMPDEST JUMPDEST DUP1 PUSH1 0x40 MSTORE POP POP POP JUMP JUMPDEST PUSH1 0x0 PUSH2 0x4AA DUP3 PUSH2 0x3F0 JUMP JUMPDEST SWAP2 POP PUSH2 0x4B5 DUP4 PUSH2 0x3F0 JUMP JUMPDEST SWAP3 POP DUP3 PUSH2 0x4C5 JUMPI PUSH2 0x4C4 PUSH2 0x4D0 JUMP JUMPDEST JUMPDEST DUP3 DUP3 MOD SWAP1 POP SWAP3 SWAP2 POP POP JUMP JUMPDEST PUSH32 0x4E487B7100000000000000000000000000000000000000000000000000000000 PUSH1 0x0 MSTORE PUSH1 0x12 PUSH1 0x4 MSTORE PUSH1 0x24 PUSH1 0x0 REVERT JUMPDEST PUSH32 0x4E487B7100000000000000000000000000000000000000000000000000000000 PUSH1 0x0 MSTORE PUSH1 0x22 PUSH1 0x4 MSTORE PUSH1 0x24 PUSH1 0x0 REVERT JUMPDEST PUSH32 0x4E487B7100000000000000000000000000000000000000000000000000000000 PUSH1 0x0 MSTORE PUSH1 0x41 PUSH1 0x4 MSTORE PUSH1 0x24 PUSH1 0x0 REVERT JUMPDEST PUSH1 0x0 DUP1 REVERT JUMPDEST PUSH1 0x0 DUP1 REVERT JUMPDEST PUSH1 0x0 DUP1 REVERT JUMPDEST PUSH1 0x0 DUP1 REVERT JUMPDEST PUSH1 0x0 PUSH1 0x1F NOT PUSH1 0x1F DUP4 ADD AND SWAP1 POP SWAP2 SWAP1 POP JUMP JUMPDEST PUSH2 0x58B DUP2 PUSH2 0x3F0 JUMP JUMPDEST DUP2 EQ PUSH2 0x596 JUMPI PUSH1 0x0 DUP1 REVERT JUMPDEST POP JUMP INVALID LOG2 PUSH5 0x6970667358 0x22 SLT KECCAK256 PUSH12 0xEB5F0CE4D80809B27F7BB901 MOD 0x5D 0xA6 PUSH25 0xBD977C440643E62007BC6632399BC664736F6C634300080700 CALLER "
				},
				"gasEstimates": {
					"creation": {
						"codeDepositCost": "297400",
						"executionCost": "infinite",
						"totalCost": "infinite"
					},
					"external": {
						"_generateRandomDna(string)": "infinite",
						"zombies(uint256)": "infinite"
					},
					"internal": {
						"_createZombie(string memory,uint256)": "infinite",
						"createRandomZombie(string memory)": "infinite"
					}
				},
				"methodIdentifiers": {
					"_generateRandomDna(string)": "df57a6ec",
					"zombies(uint256)": "2052465e"
				}
			},
			"storageLayout": {
				"storage": [
					{
						"astId": 4,
						"contract": "contracts/CryptoZombies.sol:ZombieFactory",
						"label": "dnaDigits",
						"offset": 0,
						"slot": "0",
						"type": "t_uint256"
					},
					{
						"astId": 9,
						"contract": "contracts/CryptoZombies.sol:ZombieFactory",
						"label": "dnaModulus",
						"offset": 0,
						"slot": "1",
						"type": "t_uint256"
					},
					{
						"astId": 18,
						"contract": "contracts/CryptoZombies.sol:ZombieFactory",
						"label": "zombies",
						"offset": 0,
						"slot": "2",
						"type": "t_array(t_struct(Zombie)14_storage)dyn_storage"
					}
				],
				"types": {
					"t_array(t_struct(Zombie)14_storage)dyn_storage": {
						"base": "t_struct(Zombie)14_storage",
						"encoding": "dynamic_array",
						"label": "struct ZombieFactory.Zombie[]",
						"numberOfBytes": "32"
					},
					"t_string_storage": {
						"encoding": "bytes",
						"label": "string",
						"numberOfBytes": "32"
					},
					"t_struct(Zombie)14_storage": {
						"encoding": "inplace",
						"label": "struct ZombieFactory.Zombie",
						"members": [
							{
								"astId": 11,
								"contract": "contracts/CryptoZombies.sol:ZombieFactory",
								"label": "name",
								"offset": 0,
								"slot": "0",
								"type": "t_string_storage"
							},
							{
								"astId": 13,
								"contract": "contracts/CryptoZombies.sol:ZombieFactory",
								"label": "dna",
								"offset": 0,
								"slot": "1",
								"type": "t_uint256"
							}
						],
						"numberOfBytes": "64"
					},
					"t_uint256": {
						"encoding": "inplace",
						"label": "uint256",
						"numberOfBytes": "32"
					}
				}
			},
			"userdoc": {
				"kind": "user",
				"methods": {},
				"version": 1
			}
		}
	}
}