{
	"contracts/desafio.sol": {
		"Desafio": {
			"abi": [
				{
					"inputs": [],
					"stateMutability": "nonpayable",
					"type": "constructor"
				},
				{
					"inputs": [],
					"name": "depositar",
					"outputs": [],
					"stateMutability": "payable",
					"type": "function"
				},
				{
					"inputs": [
						{
							"internalType": "uint256",
							"name": "amount",
							"type": "uint256"
						}
					],
					"name": "mint",
					"outputs": [],
					"stateMutability": "nonpayable",
					"type": "function"
				},
				{
					"inputs": [],
					"name": "retirar",
					"outputs": [],
					"stateMutability": "nonpayable",
					"type": "function"
				}
			],
			"devdoc": {
				"kind": "dev",
				"methods": {},
				"version": 1
			},
			"evm": {
				"assembly": "    /* \"contracts/desafio.sol\":68:752  contract Desafio {\r... */\n  mstore(0x40, 0x80)\n    /* \"contracts/desafio.sol\":157:208  constructor() {\r... */\n  callvalue\n  dup1\n  iszero\n  tag_1\n  jumpi\n  0x00\n  dup1\n  revert\ntag_1:\n  pop\n    /* \"contracts/desafio.sol\":190:200  msg.sender */\n  caller\n    /* \"contracts/desafio.sol\":182:187  owner */\n  0x00\n  dup1\n    /* \"contracts/desafio.sol\":182:200  owner = msg.sender */\n  0x0100\n  exp\n  dup2\n  sload\n  dup2\n  0xffffffffffffffffffffffffffffffffffffffff\n  mul\n  not\n  and\n  swap1\n  dup4\n  0xffffffffffffffffffffffffffffffffffffffff\n  and\n  mul\n  or\n  swap1\n  sstore\n  pop\n    /* \"contracts/desafio.sol\":68:752  contract Desafio {\r... */\n  dataSize(sub_0)\n  dup1\n  dataOffset(sub_0)\n  0x00\n  codecopy\n  0x00\n  return\nstop\n\nsub_0: assembly {\n        /* \"contracts/desafio.sol\":68:752  contract Desafio {\r... */\n      mstore(0x40, 0x80)\n      jumpi(tag_1, lt(calldatasize, 0x04))\n      shr(0xe0, calldataload(0x00))\n      dup1\n      0x3d922f90\n      eq\n      tag_2\n      jumpi\n      dup1\n      0x4735a442\n      eq\n      tag_3\n      jumpi\n      dup1\n      0xa0712d68\n      eq\n      tag_4\n      jumpi\n    tag_1:\n      0x00\n      dup1\n      revert\n        /* \"contracts/desafio.sol\":379:467  function depositar() public payable {\r... */\n    tag_2:\n      tag_5\n      tag_6\n      jump\t// in\n    tag_5:\n      stop\n        /* \"contracts/desafio.sol\":475:749  function retirar() public {\r... */\n    tag_3:\n      callvalue\n      dup1\n      iszero\n      tag_7\n      jumpi\n      0x00\n      dup1\n      revert\n    tag_7:\n      pop\n      tag_8\n      tag_9\n      jump\t// in\n    tag_8:\n      stop\n        /* \"contracts/desafio.sol\":216:371  function mint(uint256 amount) public {\r... */\n    tag_4:\n      callvalue\n      dup1\n      iszero\n      tag_10\n      jumpi\n      0x00\n      dup1\n      revert\n    tag_10:\n      pop\n      tag_11\n      0x04\n      dup1\n      calldatasize\n      sub\n      dup2\n      add\n      swap1\n      tag_12\n      swap2\n      swap1\n      tag_13\n      jump\t// in\n    tag_12:\n      tag_14\n      jump\t// in\n    tag_11:\n      stop\n        /* \"contracts/desafio.sol\":379:467  function depositar() public payable {\r... */\n    tag_6:\n        /* \"contracts/desafio.sol\":450:459  msg.value */\n      callvalue\n        /* \"contracts/desafio.sol\":426:434  balances */\n      0x01\n        /* \"contracts/desafio.sol\":426:446  balances[msg.sender] */\n      0x00\n        /* \"contracts/desafio.sol\":435:445  msg.sender */\n      caller\n        /* \"contracts/desafio.sol\":426:446  balances[msg.sender] */\n      0xffffffffffffffffffffffffffffffffffffffff\n      and\n      0xffffffffffffffffffffffffffffffffffffffff\n      and\n      dup2\n      mstore\n      0x20\n      add\n      swap1\n      dup2\n      mstore\n      0x20\n      add\n      0x00\n      keccak256\n      0x00\n        /* \"contracts/desafio.sol\":426:459  balances[msg.sender] += msg.value */\n      dup3\n      dup3\n      sload\n      tag_16\n      swap2\n      swap1\n      tag_17\n      jump\t// in\n    tag_16:\n      swap3\n      pop\n      pop\n      dup2\n      swap1\n      sstore\n      pop\n        /* \"contracts/desafio.sol\":379:467  function depositar() public payable {\r... */\n      jump\t// out\n        /* \"contracts/desafio.sol\":475:749  function retirar() public {\r... */\n    tag_9:\n        /* \"contracts/desafio.sol\":543:544  0 */\n      0x00\n        /* \"contracts/desafio.sol\":520:528  balances */\n      0x01\n        /* \"contracts/desafio.sol\":520:540  balances[msg.sender] */\n      0x00\n        /* \"contracts/desafio.sol\":529:539  msg.sender */\n      caller\n        /* \"contracts/desafio.sol\":520:540  balances[msg.sender] */\n      0xffffffffffffffffffffffffffffffffffffffff\n      and\n      0xffffffffffffffffffffffffffffffffffffffff\n      and\n      dup2\n      mstore\n      0x20\n      add\n      swap1\n      dup2\n      mstore\n      0x20\n      add\n      0x00\n      keccak256\n      sload\n        /* \"contracts/desafio.sol\":520:544  balances[msg.sender] > 0 */\n      gt\n        /* \"contracts/desafio.sol\":512:545  require(balances[msg.sender] > 0) */\n      tag_19\n      jumpi\n      0x00\n      dup1\n      revert\n    tag_19:\n        /* \"contracts/desafio.sol\":556:569  uint256 monto */\n      0x00\n        /* \"contracts/desafio.sol\":572:580  balances */\n      0x01\n        /* \"contracts/desafio.sol\":572:592  balances[msg.sender] */\n      0x00\n        /* \"contracts/desafio.sol\":581:591  msg.sender */\n      caller\n        /* \"contracts/desafio.sol\":572:592  balances[msg.sender] */\n      0xffffffffffffffffffffffffffffffffffffffff\n      and\n      0xffffffffffffffffffffffffffffffffffffffff\n      and\n      dup2\n      mstore\n      0x20\n      add\n      swap1\n      dup2\n      mstore\n      0x20\n      add\n      0x00\n      keccak256\n      sload\n        /* \"contracts/desafio.sol\":556:592  uint256 monto = balances[msg.sender] */\n      swap1\n      pop\n        /* \"contracts/desafio.sol\":626:627  0 */\n      0x00\n        /* \"contracts/desafio.sol\":603:611  balances */\n      0x01\n        /* \"contracts/desafio.sol\":603:623  balances[msg.sender] */\n      0x00\n        /* \"contracts/desafio.sol\":612:622  msg.sender */\n      caller\n        /* \"contracts/desafio.sol\":603:623  balances[msg.sender] */\n      0xffffffffffffffffffffffffffffffffffffffff\n      and\n      0xffffffffffffffffffffffffffffffffffffffff\n      and\n      dup2\n      mstore\n      0x20\n      add\n      swap1\n      dup2\n      mstore\n      0x20\n      add\n      0x00\n      keccak256\n        /* \"contracts/desafio.sol\":603:627  balances[msg.sender] = 0 */\n      dup2\n      swap1\n      sstore\n      pop\n        /* \"contracts/desafio.sol\":639:653  bool resultado */\n      0x00\n        /* \"contracts/desafio.sol\":659:669  msg.sender */\n      caller\n        /* \"contracts/desafio.sol\":659:674  msg.sender.call */\n      0xffffffffffffffffffffffffffffffffffffffff\n      and\n        /* \"contracts/desafio.sol\":682:687  monto */\n      dup3\n        /* \"contracts/desafio.sol\":694:701  1000000 */\n      0x0f4240\n        /* \"contracts/desafio.sol\":659:706  msg.sender.call{value: monto, gas: 1000000}(\"\") */\n      swap1\n      mload(0x40)\n      tag_20\n      swap1\n      tag_21\n      jump\t// in\n    tag_20:\n      0x00\n      mload(0x40)\n      dup1\n      dup4\n      sub\n      dup2\n      dup6\n      dup9\n      dup9\n      call\n      swap4\n      pop\n      pop\n      pop\n      pop\n      returndatasize\n      dup1\n      0x00\n      dup2\n      eq\n      tag_24\n      jumpi\n      mload(0x40)\n      swap2\n      pop\n      and(add(returndatasize, 0x3f), not(0x1f))\n      dup3\n      add\n      0x40\n      mstore\n      returndatasize\n      dup3\n      mstore\n      returndatasize\n      0x00\n      0x20\n      dup5\n      add\n      returndatacopy\n      jump(tag_23)\n    tag_24:\n      0x60\n      swap2\n      pop\n    tag_23:\n      pop\n        /* \"contracts/desafio.sol\":638:706  (bool resultado, ) = msg.sender.call{value: monto, gas: 1000000}(\"\") */\n      pop\n      swap1\n      pop\n        /* \"contracts/desafio.sol\":722:731  resultado */\n      dup1\n        /* \"contracts/desafio.sol\":717:741  if (!resultado) revert() */\n      tag_25\n      jumpi\n        /* \"contracts/desafio.sol\":733:741  revert() */\n      0x00\n      dup1\n      revert\n        /* \"contracts/desafio.sol\":717:741  if (!resultado) revert() */\n    tag_25:\n        /* \"contracts/desafio.sol\":501:749  {\r... */\n      pop\n      pop\n        /* \"contracts/desafio.sol\":475:749  function retirar() public {\r... */\n      jump\t// out\n        /* \"contracts/desafio.sol\":216:371  function mint(uint256 amount) public {\r... */\n    tag_14:\n        /* \"contracts/desafio.sol\":281:291  msg.sender */\n      caller\n        /* \"contracts/desafio.sol\":272:291  owner == msg.sender */\n      0xffffffffffffffffffffffffffffffffffffffff\n      and\n        /* \"contracts/desafio.sol\":272:277  owner */\n      0x00\n      dup1\n      sload\n      swap1\n      0x0100\n      exp\n      swap1\n      div\n      0xffffffffffffffffffffffffffffffffffffffff\n      and\n        /* \"contracts/desafio.sol\":272:291  owner == msg.sender */\n      0xffffffffffffffffffffffffffffffffffffffff\n      and\n      eq\n        /* \"contracts/desafio.sol\":264:322  require(owner == msg.sender, \"El usuario no es el owner.\") */\n      tag_27\n      jumpi\n      mload(0x40)\n      0x08c379a000000000000000000000000000000000000000000000000000000000\n      dup2\n      mstore\n      0x04\n      add\n      tag_28\n      swap1\n      tag_29\n      jump\t// in\n    tag_28:\n      mload(0x40)\n      dup1\n      swap2\n      sub\n      swap1\n      revert\n    tag_27:\n        /* \"contracts/desafio.sol\":357:363  amount */\n      dup1\n        /* \"contracts/desafio.sol\":333:341  balances */\n      0x01\n        /* \"contracts/desafio.sol\":333:353  balances[msg.sender] */\n      0x00\n        /* \"contracts/desafio.sol\":342:352  msg.sender */\n      caller\n        /* \"contracts/desafio.sol\":333:353  balances[msg.sender] */\n      0xffffffffffffffffffffffffffffffffffffffff\n      and\n      0xffffffffffffffffffffffffffffffffffffffff\n      and\n      dup2\n      mstore\n      0x20\n      add\n      swap1\n      dup2\n      mstore\n      0x20\n      add\n      0x00\n      keccak256\n      0x00\n        /* \"contracts/desafio.sol\":333:363  balances[msg.sender] += amount */\n      dup3\n      dup3\n      sload\n      tag_30\n      swap2\n      swap1\n      tag_17\n      jump\t// in\n    tag_30:\n      swap3\n      pop\n      pop\n      dup2\n      swap1\n      sstore\n      pop\n        /* \"contracts/desafio.sol\":216:371  function mint(uint256 amount) public {\r... */\n      pop\n      jump\t// out\n        /* \"#utility.yul\":7:146   */\n    tag_32:\n        /* \"#utility.yul\":53:58   */\n      0x00\n        /* \"#utility.yul\":91:97   */\n      dup2\n        /* \"#utility.yul\":78:98   */\n      calldataload\n        /* \"#utility.yul\":69:98   */\n      swap1\n      pop\n        /* \"#utility.yul\":107:140   */\n      tag_34\n        /* \"#utility.yul\":134:139   */\n      dup2\n        /* \"#utility.yul\":107:140   */\n      tag_35\n      jump\t// in\n    tag_34:\n        /* \"#utility.yul\":7:146   */\n      swap3\n      swap2\n      pop\n      pop\n      jump\t// out\n        /* \"#utility.yul\":152:481   */\n    tag_13:\n        /* \"#utility.yul\":211:217   */\n      0x00\n        /* \"#utility.yul\":260:262   */\n      0x20\n        /* \"#utility.yul\":248:257   */\n      dup3\n        /* \"#utility.yul\":239:246   */\n      dup5\n        /* \"#utility.yul\":235:258   */\n      sub\n        /* \"#utility.yul\":231:263   */\n      slt\n        /* \"#utility.yul\":228:347   */\n      iszero\n      tag_37\n      jumpi\n        /* \"#utility.yul\":266:345   */\n      tag_38\n      tag_39\n      jump\t// in\n    tag_38:\n        /* \"#utility.yul\":228:347   */\n    tag_37:\n        /* \"#utility.yul\":386:387   */\n      0x00\n        /* \"#utility.yul\":411:464   */\n      tag_40\n        /* \"#utility.yul\":456:463   */\n      dup5\n        /* \"#utility.yul\":447:453   */\n      dup3\n        /* \"#utility.yul\":436:445   */\n      dup6\n        /* \"#utility.yul\":432:454   */\n      add\n        /* \"#utility.yul\":411:464   */\n      tag_32\n      jump\t// in\n    tag_40:\n        /* \"#utility.yul\":401:464   */\n      swap2\n      pop\n        /* \"#utility.yul\":357:474   */\n      pop\n        /* \"#utility.yul\":152:481   */\n      swap3\n      swap2\n      pop\n      pop\n      jump\t// out\n        /* \"#utility.yul\":487:885   */\n    tag_41:\n        /* \"#utility.yul\":646:649   */\n      0x00\n        /* \"#utility.yul\":667:750   */\n      tag_43\n        /* \"#utility.yul\":748:749   */\n      0x00\n        /* \"#utility.yul\":743:746   */\n      dup4\n        /* \"#utility.yul\":667:750   */\n      tag_44\n      jump\t// in\n    tag_43:\n        /* \"#utility.yul\":660:750   */\n      swap2\n      pop\n        /* \"#utility.yul\":759:852   */\n      tag_45\n        /* \"#utility.yul\":848:851   */\n      dup3\n        /* \"#utility.yul\":759:852   */\n      tag_46\n      jump\t// in\n    tag_45:\n        /* \"#utility.yul\":877:878   */\n      0x00\n        /* \"#utility.yul\":872:875   */\n      dup3\n        /* \"#utility.yul\":868:879   */\n      add\n        /* \"#utility.yul\":861:879   */\n      swap1\n      pop\n        /* \"#utility.yul\":487:885   */\n      swap2\n      swap1\n      pop\n      jump\t// out\n        /* \"#utility.yul\":891:1257   */\n    tag_47:\n        /* \"#utility.yul\":1033:1036   */\n      0x00\n        /* \"#utility.yul\":1054:1121   */\n      tag_49\n        /* \"#utility.yul\":1118:1120   */\n      0x1a\n        /* \"#utility.yul\":1113:1116   */\n      dup4\n        /* \"#utility.yul\":1054:1121   */\n      tag_50\n      jump\t// in\n    tag_49:\n        /* \"#utility.yul\":1047:1121   */\n      swap2\n      pop\n        /* \"#utility.yul\":1130:1223   */\n      tag_51\n        /* \"#utility.yul\":1219:1222   */\n      dup3\n        /* \"#utility.yul\":1130:1223   */\n      tag_52\n      jump\t// in\n    tag_51:\n        /* \"#utility.yul\":1248:1250   */\n      0x20\n        /* \"#utility.yul\":1243:1246   */\n      dup3\n        /* \"#utility.yul\":1239:1251   */\n      add\n        /* \"#utility.yul\":1232:1251   */\n      swap1\n      pop\n        /* \"#utility.yul\":891:1257   */\n      swap2\n      swap1\n      pop\n      jump\t// out\n        /* \"#utility.yul\":1263:1642   */\n    tag_21:\n        /* \"#utility.yul\":1447:1450   */\n      0x00\n        /* \"#utility.yul\":1469:1616   */\n      tag_54\n        /* \"#utility.yul\":1612:1615   */\n      dup3\n        /* \"#utility.yul\":1469:1616   */\n      tag_41\n      jump\t// in\n    tag_54:\n        /* \"#utility.yul\":1462:1616   */\n      swap2\n      pop\n        /* \"#utility.yul\":1633:1636   */\n      dup2\n        /* \"#utility.yul\":1626:1636   */\n      swap1\n      pop\n        /* \"#utility.yul\":1263:1642   */\n      swap2\n      swap1\n      pop\n      jump\t// out\n        /* \"#utility.yul\":1648:2067   */\n    tag_29:\n        /* \"#utility.yul\":1814:1818   */\n      0x00\n        /* \"#utility.yul\":1852:1854   */\n      0x20\n        /* \"#utility.yul\":1841:1850   */\n      dup3\n        /* \"#utility.yul\":1837:1855   */\n      add\n        /* \"#utility.yul\":1829:1855   */\n      swap1\n      pop\n        /* \"#utility.yul\":1901:1910   */\n      dup2\n        /* \"#utility.yul\":1895:1899   */\n      dup2\n        /* \"#utility.yul\":1891:1911   */\n      sub\n        /* \"#utility.yul\":1887:1888   */\n      0x00\n        /* \"#utility.yul\":1876:1885   */\n      dup4\n        /* \"#utility.yul\":1872:1889   */\n      add\n        /* \"#utility.yul\":1865:1912   */\n      mstore\n        /* \"#utility.yul\":1929:2060   */\n      tag_56\n        /* \"#utility.yul\":2055:2059   */\n      dup2\n        /* \"#utility.yul\":1929:2060   */\n      tag_47\n      jump\t// in\n    tag_56:\n        /* \"#utility.yul\":1921:2060   */\n      swap1\n      pop\n        /* \"#utility.yul\":1648:2067   */\n      swap2\n      swap1\n      pop\n      jump\t// out\n        /* \"#utility.yul\":2154:2301   */\n    tag_44:\n        /* \"#utility.yul\":2255:2266   */\n      0x00\n        /* \"#utility.yul\":2292:2295   */\n      dup2\n        /* \"#utility.yul\":2277:2295   */\n      swap1\n      pop\n        /* \"#utility.yul\":2154:2301   */\n      swap3\n      swap2\n      pop\n      pop\n      jump\t// out\n        /* \"#utility.yul\":2307:2476   */\n    tag_50:\n        /* \"#utility.yul\":2391:2402   */\n      0x00\n        /* \"#utility.yul\":2425:2431   */\n      dup3\n        /* \"#utility.yul\":2420:2423   */\n      dup3\n        /* \"#utility.yul\":2413:2432   */\n      mstore\n        /* \"#utility.yul\":2465:2469   */\n      0x20\n        /* \"#utility.yul\":2460:2463   */\n      dup3\n        /* \"#utility.yul\":2456:2470   */\n      add\n        /* \"#utility.yul\":2441:2470   */\n      swap1\n      pop\n        /* \"#utility.yul\":2307:2476   */\n      swap3\n      swap2\n      pop\n      pop\n      jump\t// out\n        /* \"#utility.yul\":2482:2787   */\n    tag_17:\n        /* \"#utility.yul\":2522:2525   */\n      0x00\n        /* \"#utility.yul\":2541:2561   */\n      tag_62\n        /* \"#utility.yul\":2559:2560   */\n      dup3\n        /* \"#utility.yul\":2541:2561   */\n      tag_63\n      jump\t// in\n    tag_62:\n        /* \"#utility.yul\":2536:2561   */\n      swap2\n      pop\n        /* \"#utility.yul\":2575:2595   */\n      tag_64\n        /* \"#utility.yul\":2593:2594   */\n      dup4\n        /* \"#utility.yul\":2575:2595   */\n      tag_63\n      jump\t// in\n    tag_64:\n        /* \"#utility.yul\":2570:2595   */\n      swap3\n      pop\n        /* \"#utility.yul\":2729:2730   */\n      dup3\n        /* \"#utility.yul\":2661:2727   */\n      0xffffffffffffffffffffffffffffffffffffffffffffffffffffffffffffffff\n        /* \"#utility.yul\":2657:2731   */\n      sub\n        /* \"#utility.yul\":2654:2655   */\n      dup3\n        /* \"#utility.yul\":2651:2732   */\n      gt\n        /* \"#utility.yul\":2648:2755   */\n      iszero\n      tag_65\n      jumpi\n        /* \"#utility.yul\":2735:2753   */\n      tag_66\n      tag_67\n      jump\t// in\n    tag_66:\n        /* \"#utility.yul\":2648:2755   */\n    tag_65:\n        /* \"#utility.yul\":2779:2780   */\n      dup3\n        /* \"#utility.yul\":2776:2777   */\n      dup3\n        /* \"#utility.yul\":2772:2781   */\n      add\n        /* \"#utility.yul\":2765:2781   */\n      swap1\n      pop\n        /* \"#utility.yul\":2482:2787   */\n      swap3\n      swap2\n      pop\n      pop\n      jump\t// out\n        /* \"#utility.yul\":2793:2870   */\n    tag_63:\n        /* \"#utility.yul\":2830:2837   */\n      0x00\n        /* \"#utility.yul\":2859:2864   */\n      dup2\n        /* \"#utility.yul\":2848:2864   */\n      swap1\n      pop\n        /* \"#utility.yul\":2793:2870   */\n      swap2\n      swap1\n      pop\n      jump\t// out\n        /* \"#utility.yul\":2876:3056   */\n    tag_67:\n        /* \"#utility.yul\":2924:3001   */\n      0x4e487b7100000000000000000000000000000000000000000000000000000000\n        /* \"#utility.yul\":2921:2922   */\n      0x00\n        /* \"#utility.yul\":2914:3002   */\n      mstore\n        /* \"#utility.yul\":3021:3025   */\n      0x11\n        /* \"#utility.yul\":3018:3019   */\n      0x04\n        /* \"#utility.yul\":3011:3026   */\n      mstore\n        /* \"#utility.yul\":3045:3049   */\n      0x24\n        /* \"#utility.yul\":3042:3043   */\n      0x00\n        /* \"#utility.yul\":3035:3050   */\n      revert\n        /* \"#utility.yul\":3185:3302   */\n    tag_39:\n        /* \"#utility.yul\":3294:3295   */\n      0x00\n        /* \"#utility.yul\":3291:3292   */\n      dup1\n        /* \"#utility.yul\":3284:3296   */\n      revert\n        /* \"#utility.yul\":3308:3422   */\n    tag_46:\n      pop\n      jump\t// out\n        /* \"#utility.yul\":3428:3604   */\n    tag_52:\n        /* \"#utility.yul\":3568:3596   */\n      0x456c207573756172696f206e6f20657320656c206f776e65722e000000000000\n        /* \"#utility.yul\":3564:3565   */\n      0x00\n        /* \"#utility.yul\":3556:3562   */\n      dup3\n        /* \"#utility.yul\":3552:3566   */\n      add\n        /* \"#utility.yul\":3545:3597   */\n      mstore\n        /* \"#utility.yul\":3428:3604   */\n      pop\n      jump\t// out\n        /* \"#utility.yul\":3610:3732   */\n    tag_35:\n        /* \"#utility.yul\":3683:3707   */\n      tag_76\n        /* \"#utility.yul\":3701:3706   */\n      dup2\n        /* \"#utility.yul\":3683:3707   */\n      tag_63\n      jump\t// in\n    tag_76:\n        /* \"#utility.yul\":3676:3681   */\n      dup2\n        /* \"#utility.yul\":3673:3708   */\n      eq\n        /* \"#utility.yul\":3663:3726   */\n      tag_77\n      jumpi\n        /* \"#utility.yul\":3722:3723   */\n      0x00\n        /* \"#utility.yul\":3719:3720   */\n      dup1\n        /* \"#utility.yul\":3712:3724   */\n      revert\n        /* \"#utility.yul\":3663:3726   */\n    tag_77:\n        /* \"#utility.yul\":3610:3732   */\n      pop\n      jump\t// out\n\n    auxdata: 0xa26469706673582212205e561a5a15a717df97279b4da99de741be60bbabf814b072415b57c57042585e64736f6c63430008070033\n}\n",
				"bytecode": {
					"linkReferences": {},
					"object": "608060405234801561001057600080fd5b50336000806101000a81548173ffffffffffffffffffffffffffffffffffffffff021916908373ffffffffffffffffffffffffffffffffffffffff1602179055506104fd806100606000396000f3fe6080604052600436106100345760003560e01c80633d922f90146100395780634735a44214610043578063a0712d681461005a575b600080fd5b610041610083565b005b34801561004f57600080fd5b506100586100db565b005b34801561006657600080fd5b50610081600480360381019061007c919061032c565b610230565b005b34600160003373ffffffffffffffffffffffffffffffffffffffff1673ffffffffffffffffffffffffffffffffffffffff16815260200190815260200160002060008282546100d291906103f0565b92505081905550565b6000600160003373ffffffffffffffffffffffffffffffffffffffff1673ffffffffffffffffffffffffffffffffffffffff168152602001908152602001600020541161012757600080fd5b6000600160003373ffffffffffffffffffffffffffffffffffffffff1673ffffffffffffffffffffffffffffffffffffffff1681526020019081526020016000205490506000600160003373ffffffffffffffffffffffffffffffffffffffff1673ffffffffffffffffffffffffffffffffffffffff1681526020019081526020016000208190555060003373ffffffffffffffffffffffffffffffffffffffff1682620f4240906040516101db9061039f565b600060405180830381858888f193505050503d8060008114610219576040519150601f19603f3d011682016040523d82523d6000602084013e61021e565b606091505b505090508061022c57600080fd5b5050565b3373ffffffffffffffffffffffffffffffffffffffff1660008054906101000a900473ffffffffffffffffffffffffffffffffffffffff1673ffffffffffffffffffffffffffffffffffffffff16146102be576040517f08c379a00000000000000000000000000000000000000000000000000000000081526004016102b5906103b4565b60405180910390fd5b80600160003373ffffffffffffffffffffffffffffffffffffffff1673ffffffffffffffffffffffffffffffffffffffff168152602001908152602001600020600082825461030d91906103f0565b9250508190555050565b600081359050610326816104b0565b92915050565b6000602082840312156103425761034161047f565b5b600061035084828501610317565b91505092915050565b60006103666000836103d4565b915061037182610484565b600082019050919050565b6000610389601a836103df565b915061039482610487565b602082019050919050565b60006103aa82610359565b9150819050919050565b600060208201905081810360008301526103cd8161037c565b9050919050565b600081905092915050565b600082825260208201905092915050565b60006103fb82610446565b915061040683610446565b9250827fffffffffffffffffffffffffffffffffffffffffffffffffffffffffffffffff0382111561043b5761043a610450565b5b828201905092915050565b6000819050919050565b7f4e487b7100000000000000000000000000000000000000000000000000000000600052601160045260246000fd5b600080fd5b50565b7f456c207573756172696f206e6f20657320656c206f776e65722e000000000000600082015250565b6104b981610446565b81146104c457600080fd5b5056fea26469706673582212205e561a5a15a717df97279b4da99de741be60bbabf814b072415b57c57042585e64736f6c63430008070033",
					"opcodes": "PUSH1 0x80 PUSH1 0x40 MSTORE CALLVALUE DUP1 ISZERO PUSH2 0x10 JUMPI PUSH1 0x0 DUP1 REVERT JUMPDEST POP CALLER PUSH1 0x0 DUP1 PUSH2 0x100 EXP DUP2 SLOAD DUP2 PUSH20 0xFFFFFFFFFFFFFFFFFFFFFFFFFFFFFFFFFFFFFFFF MUL NOT AND SWAP1 DUP4 PUSH20 0xFFFFFFFFFFFFFFFFFFFFFFFFFFFFFFFFFFFFFFFF AND MUL OR SWAP1 SSTORE POP PUSH2 0x4FD DUP1 PUSH2 0x60 PUSH1 0x0 CODECOPY PUSH1 0x0 RETURN INVALID PUSH1 0x80 PUSH1 0x40 MSTORE PUSH1 0x4 CALLDATASIZE LT PUSH2 0x34 JUMPI PUSH1 0x0 CALLDATALOAD PUSH1 0xE0 SHR DUP1 PUSH4 0x3D922F90 EQ PUSH2 0x39 JUMPI DUP1 PUSH4 0x4735A442 EQ PUSH2 0x43 JUMPI DUP1 PUSH4 0xA0712D68 EQ PUSH2 0x5A JUMPI JUMPDEST PUSH1 0x0 DUP1 REVERT JUMPDEST PUSH2 0x41 PUSH2 0x83 JUMP JUMPDEST STOP JUMPDEST CALLVALUE DUP1 ISZERO PUSH2 0x4F JUMPI PUSH1 0x0 DUP1 REVERT JUMPDEST POP PUSH2 0x58 PUSH2 0xDB JUMP JUMPDEST STOP JUMPDEST CALLVALUE DUP1 ISZERO PUSH2 0x66 JUMPI PUSH1 0x0 DUP1 REVERT JUMPDEST POP PUSH2 0x81 PUSH1 0x4 DUP1 CALLDATASIZE SUB DUP2 ADD SWAP1 PUSH2 0x7C SWAP2 SWAP1 PUSH2 0x32C JUMP JUMPDEST PUSH2 0x230 JUMP JUMPDEST STOP JUMPDEST CALLVALUE PUSH1 0x1 PUSH1 0x0 CALLER PUSH20 0xFFFFFFFFFFFFFFFFFFFFFFFFFFFFFFFFFFFFFFFF AND PUSH20 0xFFFFFFFFFFFFFFFFFFFFFFFFFFFFFFFFFFFFFFFF AND DUP2 MSTORE PUSH1 0x20 ADD SWAP1 DUP2 MSTORE PUSH1 0x20 ADD PUSH1 0x0 KECCAK256 PUSH1 0x0 DUP3 DUP3 SLOAD PUSH2 0xD2 SWAP2 SWAP1 PUSH2 0x3F0 JUMP JUMPDEST SWAP3 POP POP DUP2 SWAP1 SSTORE POP JUMP JUMPDEST PUSH1 0x0 PUSH1 0x1 PUSH1 0x0 CALLER PUSH20 0xFFFFFFFFFFFFFFFFFFFFFFFFFFFFFFFFFFFFFFFF AND PUSH20 0xFFFFFFFFFFFFFFFFFFFFFFFFFFFFFFFFFFFFFFFF AND DUP2 MSTORE PUSH1 0x20 ADD SWAP1 DUP2 MSTORE PUSH1 0x20 ADD PUSH1 0x0 KECCAK256 SLOAD GT PUSH2 0x127 JUMPI PUSH1 0x0 DUP1 REVERT JUMPDEST PUSH1 0x0 PUSH1 0x1 PUSH1 0x0 CALLER PUSH20 0xFFFFFFFFFFFFFFFFFFFFFFFFFFFFFFFFFFFFFFFF AND PUSH20 0xFFFFFFFFFFFFFFFFFFFFFFFFFFFFFFFFFFFFFFFF AND DUP2 MSTORE PUSH1 0x20 ADD SWAP1 DUP2 MSTORE PUSH1 0x20 ADD PUSH1 0x0 KECCAK256 SLOAD SWAP1 POP PUSH1 0x0 PUSH1 0x1 PUSH1 0x0 CALLER PUSH20 0xFFFFFFFFFFFFFFFFFFFFFFFFFFFFFFFFFFFFFFFF AND PUSH20 0xFFFFFFFFFFFFFFFFFFFFFFFFFFFFFFFFFFFFFFFF AND DUP2 MSTORE PUSH1 0x20 ADD SWAP1 DUP2 MSTORE PUSH1 0x20 ADD PUSH1 0x0 KECCAK256 DUP2 SWAP1 SSTORE POP PUSH1 0x0 CALLER PUSH20 0xFFFFFFFFFFFFFFFFFFFFFFFFFFFFFFFFFFFFFFFF AND DUP3 PUSH3 0xF4240 SWAP1 PUSH1 0x40 MLOAD PUSH2 0x1DB SWAP1 PUSH2 0x39F JUMP JUMPDEST PUSH1 0x0 PUSH1 0x40 MLOAD DUP1 DUP4 SUB DUP2 DUP6 DUP9 DUP9 CALL SWAP4 POP POP POP POP RETURNDATASIZE DUP1 PUSH1 0x0 DUP2 EQ PUSH2 0x219 JUMPI PUSH1 0x40 MLOAD SWAP2 POP PUSH1 0x1F NOT PUSH1 0x3F RETURNDATASIZE ADD AND DUP3 ADD PUSH1 0x40 MSTORE RETURNDATASIZE DUP3 MSTORE RETURNDATASIZE PUSH1 0x0 PUSH1 0x20 DUP5 ADD RETURNDATACOPY PUSH2 0x21E JUMP JUMPDEST PUSH1 0x60 SWAP2 POP JUMPDEST POP POP SWAP1 POP DUP1 PUSH2 0x22C JUMPI PUSH1 0x0 DUP1 REVERT JUMPDEST POP POP JUMP JUMPDEST CALLER PUSH20 0xFFFFFFFFFFFFFFFFFFFFFFFFFFFFFFFFFFFFFFFF AND PUSH1 0x0 DUP1 SLOAD SWAP1 PUSH2 0x100 EXP SWAP1 DIV PUSH20 0xFFFFFFFFFFFFFFFFFFFFFFFFFFFFFFFFFFFFFFFF AND PUSH20 0xFFFFFFFFFFFFFFFFFFFFFFFFFFFFFFFFFFFFFFFF AND EQ PUSH2 0x2BE JUMPI PUSH1 0x40 MLOAD PUSH32 0x8C379A000000000000000000000000000000000000000000000000000000000 DUP2 MSTORE PUSH1 0x4 ADD PUSH2 0x2B5 SWAP1 PUSH2 0x3B4 JUMP JUMPDEST PUSH1 0x40 MLOAD DUP1 SWAP2 SUB SWAP1 REVERT JUMPDEST DUP1 PUSH1 0x1 PUSH1 0x0 CALLER PUSH20 0xFFFFFFFFFFFFFFFFFFFFFFFFFFFFFFFFFFFFFFFF AND PUSH20 0xFFFFFFFFFFFFFFFFFFFFFFFFFFFFFFFFFFFFFFFF AND DUP2 MSTORE PUSH1 0x20 ADD SWAP1 DUP2 MSTORE PUSH1 0x20 ADD PUSH1 0x0 KECCAK256 PUSH1 0x0 DUP3 DUP3 SLOAD PUSH2 0x30D SWAP2 SWAP1 PUSH2 0x3F0 JUMP JUMPDEST SWAP3 POP POP DUP2 SWAP1 SSTORE POP POP JUMP JUMPDEST PUSH1 0x0 DUP2 CALLDATALOAD SWAP1 POP PUSH2 0x326 DUP2 PUSH2 0x4B0 JUMP JUMPDEST SWAP3 SWAP2 POP POP JUMP JUMPDEST PUSH1 0x0 PUSH1 0x20 DUP3 DUP5 SUB SLT ISZERO PUSH2 0x342 JUMPI PUSH2 0x341 PUSH2 0x47F JUMP JUMPDEST JUMPDEST PUSH1 0x0 PUSH2 0x350 DUP5 DUP3 DUP6 ADD PUSH2 0x317 JUMP JUMPDEST SWAP2 POP POP SWAP3 SWAP2 POP POP JUMP JUMPDEST PUSH1 0x0 PUSH2 0x366 PUSH1 0x0 DUP4 PUSH2 0x3D4 JUMP JUMPDEST SWAP2 POP PUSH2 0x371 DUP3 PUSH2 0x484 JUMP JUMPDEST PUSH1 0x0 DUP3 ADD SWAP1 POP SWAP2 SWAP1 POP JUMP JUMPDEST PUSH1 0x0 PUSH2 0x389 PUSH1 0x1A DUP4 PUSH2 0x3DF JUMP JUMPDEST SWAP2 POP PUSH2 0x394 DUP3 PUSH2 0x487 JUMP JUMPDEST PUSH1 0x20 DUP3 ADD SWAP1 POP SWAP2 SWAP1 POP JUMP JUMPDEST PUSH1 0x0 PUSH2 0x3AA DUP3 PUSH2 0x359 JUMP JUMPDEST SWAP2 POP DUP2 SWAP1 POP SWAP2 SWAP1 POP JUMP JUMPDEST PUSH1 0x0 PUSH1 0x20 DUP3 ADD SWAP1 POP DUP2 DUP2 SUB PUSH1 0x0 DUP4 ADD MSTORE PUSH2 0x3CD DUP2 PUSH2 0x37C JUMP JUMPDEST SWAP1 POP SWAP2 SWAP1 POP JUMP JUMPDEST PUSH1 0x0 DUP2 SWAP1 POP SWAP3 SWAP2 POP POP JUMP JUMPDEST PUSH1 0x0 DUP3 DUP3 MSTORE PUSH1 0x20 DUP3 ADD SWAP1 POP SWAP3 SWAP2 POP POP JUMP JUMPDEST PUSH1 0x0 PUSH2 0x3FB DUP3 PUSH2 0x446 JUMP JUMPDEST SWAP2 POP PUSH2 0x406 DUP4 PUSH2 0x446 JUMP JUMPDEST SWAP3 POP DUP3 PUSH32 0xFFFFFFFFFFFFFFFFFFFFFFFFFFFFFFFFFFFFFFFFFFFFFFFFFFFFFFFFFFFFFFFF SUB DUP3 GT ISZERO PUSH2 0x43B JUMPI PUSH2 0x43A PUSH2 0x450 JUMP JUMPDEST JUMPDEST DUP3 DUP3 ADD SWAP1 POP SWAP3 SWAP2 POP POP JUMP JUMPDEST PUSH1 0x0 DUP2 SWAP1 POP SWAP2 SWAP1 POP JUMP JUMPDEST PUSH32 0x4E487B7100000000000000000000000000000000000000000000000000000000 PUSH1 0x0 MSTORE PUSH1 0x11 PUSH1 0x4 MSTORE PUSH1 0x24 PUSH1 0x0 REVERT JUMPDEST PUSH1 0x0 DUP1 REVERT JUMPDEST POP JUMP JUMPDEST PUSH32 0x456C207573756172696F206E6F20657320656C206F776E65722E000000000000 PUSH1 0x0 DUP3 ADD MSTORE POP JUMP JUMPDEST PUSH2 0x4B9 DUP2 PUSH2 0x446 JUMP JUMPDEST DUP2 EQ PUSH2 0x4C4 JUMPI PUSH1 0x0 DUP1 REVERT JUMPDEST POP JUMP INVALID LOG2 PUSH5 0x6970667358 0x22 SLT KECCAK256 0x5E JUMP BYTE GAS ISZERO 0xA7 OR 0xDF SWAP8 0x27 SWAP12 0x4D 0xA9 SWAP14 0xE7 COINBASE 0xBE PUSH1 0xBB 0xAB 0xF8 EQ 0xB0 PUSH19 0x415B57C57042585E64736F6C63430008070033 "
				},
				"gasEstimates": {
					"creation": {
						"codeDepositCost": "255400",
						"executionCost": "24560",
						"totalCost": "279960"
					},
					"external": {
						"depositar()": "infinite",
						"mint(uint256)": "infinite",
						"retirar()": "infinite"
					}
				},
				"methodIdentifiers": {
					"depositar()": "3d922f90",
					"mint(uint256)": "a0712d68",
					"retirar()": "4735a442"
				}
			},
			"storageLayout": {
				"storage": [
					{
						"astId": 3,
						"contract": "contracts/desafio.sol:Desafio",
						"label": "owner",
						"offset": 0,
						"slot": "0",
						"type": "t_address"
					},
					{
						"astId": 7,
						"contract": "contracts/desafio.sol:Desafio",
						"label": "balances",
						"offset": 0,
						"slot": "1",
						"type": "t_mapping(t_address,t_uint256)"
					}
				],
				"types": {
					"t_address": {
						"encoding": "inplace",
						"label": "address",
						"numberOfBytes": "20"
					},
					"t_mapping(t_address,t_uint256)": {
						"encoding": "mapping",
						"key": "t_address",
						"label": "mapping(address => uint256)",
						"numberOfBytes": "32",
						"value": "t_uint256"
					},
					"t_uint256": {
						"encoding": "inplace",
						"label": "uint256",
						"numberOfBytes": "32"
					}
				}
			},
			"userdoc": {
				"kind": "user",
				"methods": {},
				"version": 1
			}
		}
	}
}